:0200000280007C
:10000000E82507206D060800690608006906080053
:10001000690608006906080069060800000000007B
:100020000000000000000000000000006906080059
:10003000690608000000000069060800690608005B
:1000400069060800690608006906080069060800D4
:1000500069060800690608006906080069060800C4
:100060006906080069060800000000009D040800F9
:10007000B1040800C5040800D9040800000000000D
:10008000000000006906080069060800690608000B
:100090006906080069060800690608006906080084
:1000A00069060800000000006906080069060800EB
:1000B0006906080069060800690608006906080064
:1000C0006906080069060800690608006906080054
:1000D0006906080069060800690608006906080044
:1000E0006906080069060800690608006906080034
:1000F0006906080010B5054C237833B9044B13B1D9
:100100000448AFF300800123237010BD5805072079
:1001100000000000540D080008B5064B1BB106484E
:100120000649AFF300800648036813B1054B03B1DD
:10013000984708BD00000000540D08005C0507202A
:10014000540D08000000000010B50E480E4B9847F3
:1001500000203E210D4B98470D4CA0470028FCD0B5
:100160000C4B98470C4A0D4B9A620D4CA047002847
:10017000FCD010200B4B98470B4B98470148024B83
:10018000984710BD00BD0105A500072051050800D6
:10019000A5050800B5050800013F0D2000060E402A
:1001A000C5050800ED0408001D07080010B54FF450
:1001B0000042174B5A600B20164CA0470C20A0475A
:1001C0000D20A0470E20A0473B204FF06051124C5D
:1001D000A04755204FF06051A04756204FF0605186
:1001E000A04768200D49A0475C200D49A0470D4855
:1001F0004FF440714FF000620B4B984711204FF0C5
:100200000061A04712204FF00061A04710BD00BF61
:10021000501A0E40D5050800D102080079000028C8
:1002200001000028000E0E40A50308004264B1F151
:10023000805F16D004D8C1B1B1F1006F0AD013E0CD
:10024000B1F1405F11D0B1F1605F0ED0B1F1205F2C
:100250000AD17047036F016F0B4023EA0203036763
:1002600002E0036F1343036742607047416412F07A
:10027000010F14BF4166016612F00A0F14BF01623C
:10028000416212F0020F02D0C0F8801004E012F0B8
:10029000080F18BFC0F8841041610160704700BFAB
:1002A00010B44164019C0CB1416600E001660BB1E1
:1002B000016500E041650AB1016300E0416301614D
:1002C00001605DF8044B7047C06C7047806C7047EC
:1002D00070B582B00D46440904F5001404F20774A9
:1002E000660201F0F044B4F1205F30D006D8B4F1DA
:1002F000006F0AD0B4F1805F18D049E0B4F1405FDC
:1003000030D0B4F1605F2DD042E000F01F00012436
:10031000844030464FF0006122461F4B984715F04D
:10032000010F14BF74663466012032E000F01F0034
:100330000124844030464FF080512246164B9847A6
:1003400015F0010F14BF74663466012021E000F03F
:100350001F010124304604FA01F12A460F4B984749
:10036000204616E000F01F01012405F0605205EA66
:1003700004030093304604FA01F1B2F1605F14BF48
:1003800000220122C5F38003054DA847204600E066
:10039000002002B070BD00BF2D0208006D020800F1
:1003A000A1020800F0B583B007460E46154602F0DC
:1003B000F044B4F1205F26D006D8B4F1006F0AD023
:1003C000B4F1805F13D034E0B4F1405F1FD0B4F1DA
:1003D000605F1CD02DE04FF000613246164B98470D
:1003E00015F0010F14BF7E663E66012022E04FF03B
:1003F00080513246104B984715F0010F14BF7E66AE
:100400003E66012016E00D4B9847012012E005F0F2
:10041000605205F00103009338463146B2F1605F47
:1004200014BF00220122C5F38003054CA047012020
:1004300000E0002003B0F0BD2D0208006D020800AE
:10044000A10208002DE9F04104460E46104B9847E2
:10045000054620460F4B9847054017D00E4F07F131
:100460000C046C3754F80C3CB3420AD154F8081C05
:10047000294206D023683046984754F8083C25EABC
:100480000305BC4202D01034002DEBD1BDE8F08151
:10049000C9020800CD0208007405072008B502480B
:1004A0000B21024B984708BD000E0E404504080082
:1004B00008B502480C21024B984708BD00100E40B9
:1004C0004504080008B502480D21024B984708BDB5
:1004D00000120E404504080008B502480E21024BE8
:1004E000984708BD00140E4045040800174B1A6BCE
:1004F00022F07002104318639B6E13F0080F09D1AD
:100500004FF40063114901E0013B19D08A6E12F0EB
:10051000080FF9D00D4B1A6B22F0030242F00202D1
:100520001A63986E10F008000CD14FF4006307496D
:1005300001E0013B08D08A6E12F0080FF9D0704735
:1005400001207047002070470120704700060E40D0
:1005500038B111490B6A114A1A40114B13430B620F
:1005600070470D4A136A23F45C1323F0030343F42A
:100570005C1343F00103090289B20B431362936ECB
:1005800013F0010FFBD0044A136A43F09B7343F44A
:1005900080331362704700BF00060E40FCFFC8FEA8
:1005A00002003701024B986E00F48030704700BFA4
:1005B00000060E404FF00052014B9A62704700BF98
:1005C00000060E40024B986E00F00200704700BF1C
:1005D00000060E402C2820D81F280DD8124B9A69EF
:1005E000012383401A40934219D0012303FA00F0FB
:1005F0000D4B1861002070470B4BD3F808212038B1
:10060000012383401A4093420BD0012303FA00F0E8
:10061000054BC3F8000100207047012070470020FF
:1006200070470020704700BF00060E4010B48901DB
:100630004318022444504FF0FF319962196A5A60FE
:100640005DF8044B704700BFC0F8C410704700BF8E
:1006500089010523435070478901022343507047A5
:1006600000EB811108697047FEE700BF10B51E4B13
:100670001E4A9A4203D01E4B1B4A9A4204D31D4B7A
:100680001D4A9A420FD31AE01C4B1D4CE41A24F069
:10069000030404340023144814495A581A500433EC
:1006A000A342FAD1EBE7174B1749C91A21F003010E
:1006B0001A1D1144002243F8042F8B42FBD1134A28
:1006C00022F0604323F07F0311498B6002F1604206
:1006D000B2F5801F03D28A6842F000528A600D4B47
:1006E00098470D4B9847FEE700000720540D08007F
:1006F00058050720E40507205805072004000720B7
:100700005B05072054050720DF05072000000800CF
:1007100000ED00E0890B08009D0A08003E4B1B6BB2
:1007200003F00303032B5FD8DFE803F0020E2B2B4B
:100730003A4B5B6913F0800F14BF4FF400424FF443
:10074000FA42374B1A604FE0334B1B6A13F0807F3D
:1007500003D0344A324B1A6046E0334A304B1A60B9
:100760002D4B1B6A03F07003102B02D0202B04D0FA
:100770003AE02E4A2A4B1A6036E02A4A284B1A6081
:1007800032E0254B1B6A13F0807F03D0254A244BAF
:100790001A6012E0244A224B1A601F4B1B6A03F0B6
:1007A0007003102B02D0202B04D006E01F4A1C4BF4
:1007B0001A6002E01B4A1A4B1A60174B1B6B03F0BE
:1007C0000303022B0DD1144B986A996A144BC0F3A2
:1007D0000A401A6800FB0222C9B2B2FBF1F21A60A9
:1007E00002E0134A0E4B1A600B4B1B6B03F07003B5
:1007F000702B07D10A4B1A680E49A1FB020252085E
:100800001A607047044B196B054BC1F302111A684B
:10081000CA401A60704700BF00060E40101A0E4012
:100820002C010720001BB70000093D0000127A00D0
:10083000001C4E0EABAAAAAA10B51B20084B984765
:10084000084C204600210A46074B984720460021C5
:10085000064B984720460021054B9847002010BDC5
:10086000D5050800000008402D06080049060800CC
:1008700059060800F8B5044609480021094B984775
:100880002A2707FB04F7064E0025074C3046294669
:10089000A047B842FAD302480021044B9847F8BD5C
:1008A00000000840510608006106080059060800CB
:1008B00070B50446007838B10126044D3146A8478A
:1008C00014F8010F0028F9D1002070BDD1080800EC
:1008D000F0B585B007460D461E4B6C461868596842
:1008E0009A68DB680FC404EB171313F8103CDB05A0
:1008F00025B14FF48001184A116303E04FF48001E1
:10090000154A516303F0F062134C2263DB4303F09A
:10091000F06363634FF40016266301200F4DA84770
:1009200066636420A84707F00F0704AB1F4417F85D
:10093000103CDB0503F0F0622263DB4303F0F0635D
:10094000636326630120A84766636420A8470020EC
:1009500005B0F0BDD00C080000120E40750808006C
:100960002DE9F047344C4FF480072761C4F8A0709C
:100970004FF400152561C4F8A0504FF0F0632361D7
:10098000C4F8A030656347F230502C4EB04767631F
:100990004FF0806AC4F830A04FF00079C4F830906E
:1009A0004FF08078C4F834804FF400076763256304
:1009B0000120B047656341F20400B047C4F830A09D
:1009C000C4F83090C4F83480676325630120B047D1
:1009D00065636420B047C4F830A0C4F83090C4F810
:1009E0003480676325630120B04765636420B047A6
:1009F000C4F834A0C4F83090C4F834806763256329
:100A00000120B04765636420B047282000210C4CCA
:100A1000A04708200021A04701200021A04740F660
:100A2000B830B04706200021A0470F200021A04782
:100A30000020BDE8F08700BF00120E4075080800D6
:100A4000D108080008B501200021044B984740F662
:100A5000B830034B9847002008BD00BFD1080800FC
:100A600075080800084B5A685A605A6842F4002218
:100A70005A601A6942F420221A611A681A601A68C8
:100A800042F010021A60704700000940024B1A68D9
:100A900042F004021A6070470000094008B5264B76
:100AA0009847264B9847264B9847264B9847264809
:100AB000264DA8472648274EB047274B98470B207E
:100AC000264CA0470C20A0470D20A0470E20A04791
:100AD0001720A0471720A0472148A847214C0123F1
:100AE00023602148A8474FF400532361C4F8A03085
:100AF0001E48A8471E4B98471E4B5A685A60FF2253
:100B00005A630A20B0471C4B98471C48A847194B0A
:100B10001A6A12F0040FFBD00F4B984718480B4B82
:100B20009847144B1A6A12F0010FFBD00A4B9847F2
:100B30001448064B9847FEE749010800AD0108003C
:100B40003908080061090800E00C0800B108080035
:100B500040420F0075080800450A0800D505080046
:100B6000E40C080000100E40E80C0800EC0C080033
:100B7000650A0800000009408D0A0800F00C080012
:100B8000040D08001C0D080070B50F4E0F4D761BAC
:100B9000B61007D0043D0024013455F8043F9847AF
:100BA000A642F9D10A4E0B4D00F0C2F8761BB610E2
:100BB00008D0043D0024013455F8043F9847A6426C
:100BC000F9D170BD70BD00BF3C0D08003C0D0800A0
:100BD000440D08003C0D0800024B13B1024800F020
:100BE00005B8704700000000F90B0800014600201E
:100BF0000246034600F018B838B5094D094C641B8D
:100C0000A41018BF05EB840505D0013C55F8043D40
:100C10009847002CF9D1BDE8384000F093B800BFE8
:100C2000500D0800540D0800F0B5274C85B026681B
:100C30000746D6F84841002C40D065681F2D1EDDC0
:100C4000224818B94FF0FF3005B0F0BD4FF4C8701E
:100C5000039102920193AFF3008003990446029A34
:100C6000019B0028EED0D6F8485100202560606036
:100C70000546C6F84841C4F88801C4F88C013FB95C
:100C80006B1C00200235636044F8251005B0F0BDF0
:100C90000126AE4004EB8500C0F88820D4F88821F6
:100CA000022F42EA0602C4F88821C0F80831E7D1D1
:100CB000D4F88C311E43C4F88C61E1E706F5A674C4
:100CC000C6F84841B9E700BF2C0D0800000000003D
:100CD0000008040C020A060E0109050D030B070F9C
:100CE00061626300610000006200000063000000B8
:100CF00057726974696E6720746F207265676973D3
:100D000074657200686F6C64696E672072656769EC
:100D10007374657220726561647900006461746146
:100D20002073656E7400000043000000300107204E
:100D3000F8B500BFF8BC08BC9E467047D90B080048
:100D400019010800F8B500BFF8BC08BC9E46704702
:040D5000F5000800A2
:100D54004FF48063204A136002F5007213601F4B46
:100D64001B6A13F0807F07D11D4A1C4B1A621A4676
:100D7400936E13F0010FFBD01A4A184B1A621A46ED
:100D8400936E13F4803FFBD0144B1A6B22F00302D2
:100D940042F001021A631A46936E13F0080FFBD057
:100DA400114A0E4B9A621A46936E13F0020FFBD04F
:100DB40011220A4B1A631A46936E13F0080FFBD0E4
:100DC4001222064B1A631A46936E13F0080FFBD0D7
:100DD400064A074B1A607047000A0E4000060E4090
:100DE4000908370009083701013F0D2000BD01053E
:100DF4002C0107201B4B984206D800231A4A136083
:100E040002F5007213607047184B984207D84FF4EC
:100E14008073154A136002F5007213607047144B17
:100E2400984207D84FF400730F4A136002F500721A
:100E3400136070470F4B984207D84FF440730A4A27
:100E4400136002F50072136070470B4B984294BF15
:100E54004FF480634FF4A063034A136002F50072F9
:100E640013607047BFEA2101000A0E407FF0FA02C6
:100E7400FF8FD003FFB3C4047F4A5D0500093D0022
:100E8400000000001C04072084040720EC04072051
:100E9400000000000000000000000000000000004E
:100EA400000000000000000000000000000000003E
:100EB40000000000280D08000000000000000000F1
:100EC400000000000000000000000000000000001E
:100ED400000000000000000000000000000000000E
:100EE40000000000000000000000000000000000FE
:100EF40000000000000000000000000000000000EE
:100F040000000000000000000000000000000000DD
:100F140000000000000000000000000000000000CD
:100F240000000000000000000100000000000000BC
:100F34000E33CDAB34126DE6ECDE05000B00000081
:100F4400000000000000000000000000000000009D
:100F5400000000000000000000000000000000008D
:100F6400000000000000000000000000000000007D
:100F7400000000000000000000000000000000006D
:040000038000066D06
:00000001FF
