S01F0000706C6174666F726D677275707065726E61735F52544F532E73726563B2
S21408000018C807200D100800091008000910080075
S2140800100910080009100800091008000000000070
S214080020000000000000000000000000A912080000
S21408003009100800000000002513080061130800D6
S214080040091008000910080009100800091008001F
S214080050091008000910080009100800091008000F
S214080060310408000910080000000000E90D080027
S214080070FD0D0800110E0800250E080000000000FF
S21408008000000000550A0800650A0800750A0800FE
S214080090850A080009100800091008000910080059
S2140800A009100800000000000910080009100800E0
S2140800B009100800091008000910080009100800AF
S2140800C0091008000910080009100800091008009F
S2140800D0091008000910080009100800091008008F
S2140800E0091008000910080009100800091008007F
S2140800F00910080010B5054C237833B9044B13B122
S2140801000448AFF300800123237010BD780507204C
S21408011000000000C02C080008B5064B1BB10648B6
S2140801200649AFF300800648036813B1054B03B1D0
S214080130984708BD00000000C02C08007C05072072
S214080140C02C08000000000070B5C0EBC0021F4BB2
S21408015003EB82039C699A6894420AD129B9002263
S214080160DA605B689C4229D910E05968091BD96097
S21408017007E0944202D9A41ADC6002E05968891A9A
S214080180D960D9680A445C68A24203D9104B9847DC
S21408019000BFFDE791B10F4D04012A195668304695
S2140801A003F1080100220C4B9847304601210B4BFF
S2140801B09847285909210A4B984770BD0001054BF6
S2140801C018580921074B984770BD00BF94050720AB
S2140801D0D9120800D42B0800450B08005D0B080050
S2140801E0D10F0800D50F08002DE9F04782B0054664
S2140801F08946164601270DF1080808F8047D564872
S21408020039462A46554B98470446307B41463A4677
S214080210534B9847002C00F39880002800F09780EE
S214080220C4EBC4024F4B03EB82039B691BB14E4BD6
S214080230984700BFFDE728464C4B984728464C4B46
S2140802409847454F07EB0417D7F80480404640F216
S2140802500221484B9847B868474B9847337B012B91
S21408026003D128464946454B984728464FF0FF3164
S214080270434B9847707B434901EBC4010022424B2D
S21408028098473368002B46D04FF0FF3000213F4B8D
S2140802909847C4EBC402334B03EB8203186118B9C2
S2140802A0314B984700BFFDE7DFF8B890E300C4EB92
S2140802B0030A4FEA8A0A09EB0A073268BA607268C4
S2140802C0FA601B1B09EB8301404608310022304BBD
S2140802D098473368BB61BB6849F80A3072681344AC
S2140802E07B60737B13F0020F0CD00120294B9847D4
S2140802F0C4EBC40209EB8203586118B91A4B984735
S21408030000BFFDE728460921234B984740460121B0
S214080310224B984706E0C4EBC402124B03EB820359
S21408032001229A610C4F24013B1993F90C00B1681D
S2140803301B4B98473859E021174B98472846194BC6
S21408034098472846184B984702E0002500E0002505
S214080350284602B0BDE8F087D42B0800210608001E
S2140803604D06080094050720D9120800B90F0800A2
S214080370C90F0800690B0800210F0800790F08004C
S214080380D50F0800B00507207D06080019170800D5
S214080390450B08005D180800D10F08005D0B080023
S2140803A029070800B10F0800C10F08002DE9F04121
S2140803B084B0044688461746039316480121224609
S2140803C0154B9847061E20DC144D05EBC605284637
S2140803D003A9134B98470346C0B90E4B03EB061602
S2140803E073680A9A009201220192284641463A46C4
S2140803F00C4EB047204610210B4B984728460A99C2
S214080400039A0A4B9847034600E0F82358B204B00C
S214080410BDE8F081D42B080021060800B0050720A7
S2140804208D070800DD070800D10F08005D080800E2
S21408043030B583B000230193324D2846324B984797
S21408044004462846314B9847044014F0100F13D042
S214080450284610212E4B98472E4B586820B100216D
S21408046001AA0B462C4DA8472A4B186820B1002134
S21408047001AA0B46284DA84714F0080F23D0274B8F
S2140804809B691BB9264B984700BFFDE7012B03D194
S214080490234B984700BFFDE7204BD9689A680A4463
S2140804A09A605B689A4202D31C4B1A689A600020CE
S2140804B001461C4B9847194B186920B1002101AA20
S2140804C00B46154DA84744B9144B186998B1002136
S2140804D001AA0B46104CA0470DE014F0E00F0AD016
S2140804E00848114B98470B4B586820B1002101AAC1
S2140804F00B46094CA047019B0BB10C4B984703B021
S21408050030BD00BF00080E40DD0F0800D90F0800F8
S214080510D50F0800B0050720C11808009405072065
S214080520D912080049010800E10F0800C91208009E
S21408053070B582B0054B984702AC44F8040D4FF4EA
S214080540FA76034D20463146A847FBE7D11D08003A
S2140805501920080070B582B0054B984702AC44F8DD
S214080560040D4FF4FA76034D20463146A847FBE7BC
S214080570D11D08001920080070B586B004460B4A3D
S21408058003AB07CA03C31A702668094B984702903C
S214080590084D094C00230093304603A908220A2375
S2140805A0A84702A84FF4FA71A047F3E7E42B08001F
S2140805B0D11D0800AD0308001920080010B50E4824
S2140805C00E4B984700203E210D4B98470D4CA047F0
S2140805D00028FCD00C4B98470C4A0D4B9A620D4CE1
S2140805E0A0470028FCD010200B4B98470B4B984789
S2140805F00148024B984710BD00BD0105A50007201D
S2140806009D0E0800F10E0800010F0800013F0D209E
S21408061000060E40110F0800390E0800BD1008002D
S21408062030B40D4669B1036893420CD003460020E7
S21408063003E053F8104F944206D00130A842F8D190
S21408064002E0002000E0002030BC7047002A0EDDE3
S2140806500B7883420DD00B460139114403E013F89A
S214080660012F824207D08B42F9D100207047002024
S2140806707047012070470120704700BFF8B506464E
S2140806800D46144610F0010F08D00120214B98475C
S214080690686018B9204B984700BFFDE716F0040FAE
S2140806A017D00120002103221C4B9847286030B140
S2140806B000210A460B461A4FB847286818B9164B41
S2140806C0984700BFFDE700210A460B46154DA84788
S2140806D001E000232B6016F0080F18D0BCB10120EB
S2140806E0002103220D4B9847206030B100210A46AE
S2140806F00B460B4DA847206818B9074B984700BF0C
S214080700FDE700210A460B46064CA047F8BD002325
S2140807102360F8BD5D180800D9120800C116080045
S214080720411708005119080010B50F2903D9154BB1
S214080730984700BFFDE7092903D8124B984700BF22
S214080740FDE7C2B202F01F0301249C4043099B0048
S21408075003F1604303F56143C3F88041002806DAD5
S21408076002F00F000901C9B2074A115407E00A014E
S214080770D2B200F1604000F5614080F800231C60AA
S21408078010BD00BFD912080014ED00E030B583B0E4
S21408079004460D46436893B168460D4B9847606813
S2140807A000212A680B460B4CA04750B168462946DC
S2140807B0094B9847012806D10020286004E000204D
S2140807C002E0FD2000E0002040B203B030BD00BFCC
S2140807D0E5220800511908000D230800F0B583B07B
S2140807E00E4615461C46089B13B10360184601E0E2
S2140807F0006820B100210A460B46134FB8470096FA
S21408080001959DF824307BB120464FF400710F4BBC
S21408081098472046694600220D4B984720464FF4D5
S21408082080710C4B98470CE020460221074B9847EE
S214080830204669460022084B984720460121054B6A
S214080840984703B0F0BD00BF51190800690B0800AF
S2140808502D0B08005D0B0800450B080010B549B9BC
S214080860006848B10B46064CA047012814BFFD2077
S214080870002002E0002000E0002040B210BD00BFCB
S2140808805119080070B5C0EBC002204B03EB820379
S2140808909C699A6894420AD129B90022DA605B6892
S2140808A09C422AD910E05968091BD96007E094428F
S2140808B002D9A41ADC6002E05968891AD960D96896
S2140808C00A445C68A24203D9114B984700BFFDE76B
S2140808D099B1104D04012A195668304603F10801EB
S2140808E000220D4B9847304601210C4B9847285953
S2140808F04FF484710A4B984770BD0001054B185891
S2140809004FF48471074B984770BD00BFB8050720A1
S214080910D9120800F02B0800450B08005D0B0800EC
S214080920E90F0800ED0F08002DE9F04383B00446F0
S2140809300023019303013B4AD65830463A4B984762
S21408094005463046394B98470540DFF80491C4EB16
S214080950C4084FEA880809EB080715F0100F18D0E6
S21408096030461021324B9847324B03EBC403586885
S21408097028B1002101AA0B46DFF8C8C0E0472D4B76
S21408098053F8340028B1002101AA0B46DFF8B4C09A
S214080990E04715F0080F21D0BB691BB9264B9847CE
S2140809A000BFFDE7012B03D1234B984700BFFDE7A7
S2140809B0FA68BB681344BB607A68934224BF59F848
S2140809C00830BB60204600211C4B9847386928B180
S2140809D0002101AA0B46DFF86CC0E04715F4807FBB
S2140809E009D03046164B9847386920B1002101AA2D
S2140809F00B46144FB84715F0E00F0CD03046124B94
S214080A0098470C4B03EBC404606820B1002101AA88
S214080A100B460C4CA047019B0BB10C4B984703B0F8
S214080A20BDE8F083F02B0800F50F0800F10F08006A
S214080A30ED0F080028060720D912080085080800C8
S214080A4001100800C1180800F90F0800C9120800AC
S214080A50B805072008B50020014B984708BD00BF19
S214080A602909080008B50120014B984708BD00BFB2
S214080A702909080008B50220014B984708BD00BFA1
S214080A802909080008B50320014B984708BD00BF90
S214080A902909080010B54FF400421D4B5A600B2078
S214080AA01C4CA0470C20A0470D20A0470E20A047AE
S214080AB03B204FF06051184CA04755204FF060512E
S214080AC0A04756204FF06051A04768201349A0471A
S214080AD05C201349A04713484FF440530366436508
S214080AE04362C0F88030026F22F4405202674360C7
S214080AF04FF440714FF000620B4B98472B204FF095
S214080B000061A0472A204FF00061A04710BD00BF33
S214080B10501A0E40210F08001D0C08007900002806
S214080B2001000028000E0E40F10C08000B4619B113
S214080B30096881605B68C3601AB11368836153688B
S214080B40C36170470B4619B1096801605B6843606A
S214080B501AB11368036153684361704721F0FE01B8
S214080B60C905C90D0162704721F4FE7121F0010123
S214080B708905890D016270474264B1F1805F16D01D
S214080B8004D8C1B1B1F1006F0AD013E0B1F1405FEB
S214080B9011D0B1F1605F0ED0B1F1205F0AD1704775
S214080BA0036F016F0B4023EA0203036702E0036F3B
S214080BB01343036742607047416412F0010F14BF85
S214080BC04166016612F00A0F14BF0162416212F014
S214080BD0020F02D0C0F8801004E012F0080F18BF09
S214080BE0C0F8841041610160704700BF10B44164CA
S214080BF0019C0CB1416600E001660BB1016500E09E
S214080C0041650AB1016300E04163016101605DF876
S214080C10044B7047C06C7047806C704770B582B0E4
S214080C200D46440904F5001404F20774660201F040
S214080C30F044B4F1205F30D006D8B4F1006F0AD083
S214080C40B4F1805F18D049E0B4F1405F30D0B4F119
S214080C50605F2DD042E000F01F000124844030463B
S214080C604FF0006122461F4B984715F0010F14BF3E
S214080C7074663466012032E000F01F0001248440C8
S214080C8030464FF080512246164B984715F0010F14
S214080C9014BF74663466012021E000F01F010124A9
S214080CA0304604FA01F12A460F4B9847204616E0CC
S214080CB000F01F01012405F0605205EA04030093C2
S214080CC0304604FA01F1B2F1605F14BF0022012237
S214080CD0C5F38003054DA847204600E0002002B073
S214080CE070BD00BF790B0800B90B0800ED0B0800B3
S214080CF0F0B583B007460E46154602F0F044B4F148
S214080D00205F26D006D8B4F1006F0AD0B4F1805F11
S214080D1013D034E0B4F1405F1FD0B4F1605F1CD04C
S214080D202DE04FF000613246164B984715F0010F3C
S214080D3014BF7E663E66012022E04FF080513246A0
S214080D40104B984715F0010F14BF7E663E660120CB
S214080D5016E00D4B9847012012E005F0605205F0AA
S214080D600103009338463146B2F1605F14BF002293
S214080D700122C5F38003054CA047012000E00020AF
S214080D8003B0F0BD790B0800B90B0800ED0B08009E
S214080D902DE9F04104460E46104B98470546204676
S214080DA00F4B9847054017D00E4F07F10C046C37C9
S214080DB054F80C3CB3420AD154F8081C294206D011
S214080DC023683046984754F8083C25EA0305BC4291
S214080DD002D01034002DEBD1BDE8F081150C0800C8
S214080DE0190C08004806072008B502480B21024BD4
S214080DF0984708BD000E0E40910D080008B5024839
S214080E000C21024B984708BD00100E40910D0800B3
S214080E1008B502480D21024B984708BD00120E403F
S214080E20910D080008B502480E21024B984708BDE8
S214080E3000140E40910D0800174B1A6B22F0700232
S214080E40104318639B6E13F0080F09D14FF4006324
S214080E50114901E0013B19D08A6E12F0080FF9D04B
S214080E600D4B1A6B22F0030242F002021A63986EC8
S214080E7010F008000CD14FF40063074901E0013B6D
S214080E8008D08A6E12F0080FF9D070470120704714
S214080E90002070470120704700060E4038B11149FF
S214080EA00B6A114A1A40114B13430B6270470D4ADE
S214080EB0136A23F45C1323F0030343F45C1343F030
S214080EC00103090289B20B431362936E13F0010FF4
S214080ED0FBD0044A136A43F09B7343F480331362CF
S214080EE0704700BF00060E40FCFFC8FE0200370130
S214080EF0024B986E00F48030704700BF00060E4024
S214080F004FF00052014B9A62704700BF00060E4031
S214080F10024B986E00F00200704700BF00060E40B5
S214080F202C2820D81F280DD8124B9A6901238340F5
S214080F301A40934219D0012303FA00F00D4B1861AA
S214080F40002070470B4BD3F8082120380123834034
S214080F501A4093420BD0012303FA00F0054BC3F85E
S214080F6000010020704701207047002070470020CD
S214080F70704700BF00060E4010B4AC2303600A6832
S214080F804B68B2FBF3F31B095C1E4FF6FE729442E5
S214080F900AD803628B68436040F20223C0F8203107
S214080FA050230360002000E001205DF8044B7047E2
S214080FB040230360704700BF80230360704700BF6C
S214080FC010230360704700BF20230360704700BFEC
S214080FD081607047C1607047006970474069704714
S214080FE04FF480730360704781607047C160704734
S214080FF000697047406970474FF480730360704714
S2140810004FF4006303607047FEE700BF10B51E4B41
S2140810101E4A9A4203D01E4B1B4A9A4204D31D4BC3
S2140810201D4A9A420FD31AE01C4B1D4CE41A24F0B2
S214081030030404340023144814495A581A50043335
S214081040A342FAD1EBE7174B1749C91A21F0030157
S2140810501A1D1144002243F8042F8B42FBD1134A71
S21408106022F0604323F07F0311498B6002F160424F
S214081070B2F5801F03D28A6842F000528A600D4B90
S21408108098470D4B9847FEE700000720C02C08003D
S2140810907805072014A807207805072004000720ED
S2140810A07B050720740507200FA807200000080006
S2140810B000ED00E0A9280800012808003E4B1B6B3D
S2140810C003F00303032B5FD8DFE803F0020E2B2B95
S2140810D03A4B5B6913F0800F14BF4FF400424FF48D
S2140810E0FA42374B1A604FE0334B1B6A13F0807F87
S2140810F003D0344A324B1A6046E0334A304B1A6003
S2140811002D4B1B6A03F07003102B02D0202B04D043
S2140811103AE02E4A2A4B1A6036E02A4A284B1A60CA
S21408112032E0254B1B6A13F0807F03D0254A244BF8
S2140811301A6012E0244A224B1A601F4B1B6A03F0FF
S2140811407003102B02D0202B04D006E01F4A1C4B3D
S2140811501A6002E01B4A1A4B1A60174B1B6B03F007
S2140811600303022B0DD1144B986A996A144BC0F3EB
S2140811700A401A6800FB0222C9B2B2FBF1F21A60F2
S21408118002E0134A0E4B1A600B4B1B6B03F07003FE
S214081190702B07D10A4B1A680E49A1FB02025208A7
S2140811A01A607047044B196B054BC1F302111A6895
S2140811B0CA401A60704700BF00060E40101A0E405C
S2140811C02C010720001BB70000093D0000127A001A
S2140811D0001C4E0EABAAAAAA00F1080343604FF003
S2140811E0FF328260C360036100230360704700BF5C
S2140811F000230361704700BF43685A684A60426824
S2140812008A605A68916059604160086103680133D2
S2140812100360704710B40C68B4F1FF3F01D103694E
S2140812200AE000F10803C2681268944204D35B68B7
S2140812305A6812689442FAD25A684A6091608B607B
S214081240596008610368013303605DF8044B704712
S214081250436882689A60836842685A6003695A6875
S214081260824204BF82685A60002202611A68013A04
S2140812701A601868704700BF03480068006880F363
S214081280088862B600DF00BF08ED00E04FF0807304
S21408129040F8043C40F8081C002340F80C3C40F892
S2140812A0202C4038704700BF064B19680868B0E81D
S2140812B0F00F80F309884FF0000080F311884EF095
S2140812C00D0E70477CA707204FF08052014B1A601E
S2140812D0704700BF04ED00E0EFF311804FF0A00167
S2140812E081F311887047002008B5034B9847034BD5
S2140812F01A6801321A6008BDD912080030010720A2
S21408130080F31188704700BF08B5044A1368013B8C
S214081310136013B90020024B984708BD3001072018
S21408132001130800EFF309800C4B1A6820E9F00F48
S21408133010602DE908404FF0A00080F3118800F0F7
S214081340F5FE4FF0000080F31188BDE808401968E4
S2140813500868B0E8F00F80F3098870477CA7072074
S21408136008B54FF08052054B1A60054B9847054B59
S21408137098470020044B984708BD00BF04ED00E0DE
S214081380D9120800F11D080001130800034A044B8F
S2140813901A600722043B1A60704700BF1F48010006
S2140813A014E000E010B5094B1A6842F470021A609F
S2140813B01A6842F070421A60054B98470024054B9D
S2140813C01C60054B9847204610BD00BF20ED00E086
S2140813D08D130800300107207912080030B4134A2C
S2140813E01368834201D21A46FAE71146546815195B
S2140813F0854203D1686804445460104642688418DD
S214081400A3420CD10A4C24689C4206D05B681A4456
S21408141042600B681B68036002E0036000E003603C
S214081420814218BF086030BC704700BFBCA60720C2
S214081430B8A6072038B50446284B9847284B1B689B
S2140814409BB9284A284B13600021516049F6F07270
S2140814509818234D286049F6F475595199505A60E2
S2140814601860224B1A68103A1A60002C2DD004F126
S214081470100212F0070F1CBF22F007020832511E96
S21408148049F6FE73994222D816490C6863689A4250
S21408149004D9236813B121461C46F7E7104B1B688E
S2140814A09C4216D00D68103523680B6063689B1A3B
S2140814B0202B04D9A018436062600D4B98470B4B4D
S2140814C01A686168521A1A6004E0002502E00025CE
S2140814D000E00025074B9847284638BDC11D080080
S2140814E0B8A60720BCA60720B806072034010720A0
S2140814F0DD130800111F080010B5044668B1074B35
S2140815009847074B196854F80C2C0A441A60A4F13B
S2140815101000044B9847044B984710BDC11D08009F
S21408152034010720DD130800111F080010B5044613
S214081530036C3BB903681BBB4068134B98470023F2
S21408154063601DE06AB980681A46104B9847A2681F
S214081550236C1344A3606268934211D32368A36084
S2140815600EE0C0681A46094B9847226C5242E36858
S2140815701344E36021688B4202D263681A44E2602F
S214081580A36B0133A36310BD45240800F92808009F
S21408159038B5034605685DB1026CC4681444C46077
S2140815A04068844228BFDD600846D968014B9847E2
S2140815B038BD00BFF9280800F8B504461D4B984703
S2140815C0A36C002B12DD636A83B104F124061A4D5E
S2140815D01A4F01E0636A4BB13046A84700B1B847D6
S2140815E0A36C013BA364A36C002BF3DC4FF0FF3322
S2140815F0A364134B98470F4B9847636C002B12DD78
S214081600236983B104F110060B4D0C4F01E02369E2
S2140816104BB13046A84700B1B847636C013B6364DA
S214081620636C002BF3DC4FF0FF336364044B98477E
S214081630F8BD00BFE91208006122080091230800DF
S2140816400913080038B50D46044618B9164B9847CE
S21408165000BFFDE7154B98472368226CE06B00FB3C
S21408166002F0191861600021A163A360821A13446E
S214081670E3604FF0FF336364A36455B923697BB115
S21408168004F110000A4B9847012809D1094B9847DE
S21408169006E004F11000084DA84704F12400A84706
S2140816A0064B9847012038BDD9120800E9120800F1
S2140816B061220800C9120800D91108000913080099
S2140816C0F8B50D461746064688B150200E4B984783
S2140816D0044660B105FB06F001300B4B98472060C6
S2140816E040B92046094B984701E000BFFDE7084B84
S2140816F09847FAE7E663256420460121054B984794
S21408170084F84D702046F8BD35140800F914080012
S214081710D91208004516080010B50C46002102220A
S214081720054B984710B104E000BFFDE7034B984708
S214081730FAE7846310BD00BFC1160800D912080076
S2140817402DE9F04F85B08A4601929B46044618B9A3
S214081750364B984700BFFDE709B9036C1BB900274D
S214081760334E344D03E0314B984700BFFDE7B04792
S214081770A26BE36B9A4212D2204651465A462E4B2B
S2140817809847636A3BB104F124002C4B984701281C
S21408179001D12B4B9847274B9847012043E0019BE4
S2140817A01BB9244B984700203DE01FB902A8254BDB
S2140817B098470127A847244B9847B047636CB3F16E
S2140817C0FF3F04BF00236364A36CB3F1FF3F04BF6D
S2140817D00023A364A84702A801A91C4B9847E0B9B0
S2140817E0B047D4F83890D4F83C80A847C1450ED105
S2140817F004F110000199164B98472046154B984758
S214081800154B98470028B2D10D4B9847AFE72046AE
S214081810104B9847104B9847A9E720460D4B98471A
S2140818200D4B9847002005B0BDE8F08FD912080088
S214081830E9120800091308002D150800612208009F
S214081840C9120800E5220800C11D08000D2308007B
S214081850BD210800B9150800111F080070B5064616
S2140818605020134B9847044610B104E000BFFDE72C
S214081870104B9847FAE70025456005608560C56007
S21408188085630123C36305644FF0FF3343648364B1
S21408189080F84D601030084EB04704F12400B04779
S2140818A0204629462A462B46044DA847204670BDA2
S2140818B035140800D9120800D91108004117080085
S2140818C02DE9F0410E4615469846044618B91C4BB5
S2140818D0984700BFFDE729B9036C1BB1184B98471A
S2140818E000BFFDE7164B98470746A26BE36B9A4284
S2140818F018D2204631464246124B9847A36CB3F19D
S214081900FF3F0AD1636A7BB104F124000E4B984767
S21408191060B16DB101242C600BE0A36C0133A364A5
S214081920012406E0002404E0012402E0012400E08B
S21408193001243846054B98472046BDE8F08100BF8D
S214081940D91208002D1508006122080001130800A6
S2140819502DE9F04F85B0894601929A46044618B993
S214081960444B984700BFFDE709B9036C2BB900271D
S214081970414EDFF834B1414D03E03E4B984700BF77
S214081980FDE7B047A36B002B28D0E56820464946FC
S2140819903B4B9847BAF1000F12D1A36B013BA363E8
S2140819A0236813B9374B98476060236993B104F1ED
S2140819B01000354B984701280CD1344B984709E05E
S2140819C0E560636A33B104F124002F4B984708B1E9
S2140819D02E4B9847294B9847012048E0019B1BB996
S2140819E0264B9847002042E017B902A8D847012797
S2140819F0A847274B9847B047636CB3F1FF3F04BF2F
S214081A0000236364A36CB3F1FF3F04BF0023A36401
S214081A10A84702A801A91F4B984710BBB047D4F89F
S214081A203880A847B8F1000F15D1236823B9B04706
S214081A306068194B9847A84704F124000199174B8A
S214081A4098472046164B9847164B9847002898D133
S214081A500E4B984795E72046114B9847114B9847E9
S214081A608FE720460E4B98470E4B9847002005B048
S214081A70BDE8F08FD9120800E9120800091308001B
S214081A80911508009D23080061220800C912080065
S214081A90C11D08000D230800C9230800BD21080041
S214081AA0B9150800111F0800E522080038B50446D5
S214081AB00D460D4B9847636CB3F1FF3F04BF0023F8
S214081AC06364A36CB3F1FF3F04BF0023A364074B12
S214081AD09847A36B23B904F124002946044B98477A
S214081AE02046044B984738BDE91208000913080039
S214081AF01D220800B915080010B504460E4B1B68D1
S214081B0058600E4B1B68984207D20D4B18680A4B54
S214081B10196804310B4B984710BD0B4B1868064BD9
S214081B2019680431074B9847084B1B689C423CBF12
S214081B30064B1C6010BD00BF7CA7072098A707208F
S214081B409CA7072015120800DCA6072038010720E6
S214081B502DE9F84F0E4617469A460A9DDDF830805E
S214081B60814618B9624B984700BFFDE7042D03D994
S214081B705F4B984700BFFDE74C205E4B98470446EE
S214081B80002800F0B180B8F1000F40F0A980B80036
S214081B90584B9847206318B92046574B9847A3E0F8
S214081BA0A521BA00554B984707F18047013F236B9C
S214081BB003EB870323F0070B04F1340031460A22AF
S214081BC04F4B9847002384F83D30042D34BF2E46EB
S214081BD00426E662A664271D3846DFF87081C047EB
S214081BE004F11800C0472461C6F10506A6616462C0
S214081BF0584649465246434B9847206010F0070F10
S214081C0003D03B4B984700BFFDE70B9B03B11C6016
S214081C103D4B98473D4B1A6801321A603C4B1B688F
S214081C202BBB3B4B1C60394B1B68012B29D1394E0B
S214081C3006F16409DFF8E0803046C04714364E45A2
S214081C40FAD1DFF80C914846334EB047DFF80481E6
S214081C504046B0473148B0473148B0473148B047AA
S214081C60314BC3F80090314BC3F8008009E0304B85
S214081C701B6833B9264B1B68DB6A9D4224BF244B7E
S214081C801C60E36A2B4A1268934284BF294A136091
S214081C90294A1168216401311160284A1268934262
S214081CA084BF264A136003EB83031A4800EB8300BD
S214081CB03946234B9847234B98471D4B1B684BB117
S214081CC0134B1B68DB6A9D4207D91F4B98470120B8
S214081CD0BDE8F88F0120BDE8F88F0120BDE8F88F31
S214081CE0C0F8308040465BE74FF0FF30BDE8F88F1D
S214081CF0D912080035140800F9140800E529080068
S214081D00792A08008D120800E9120800BCA70720E7
S214081D107CA7072014A70720D911080080A707204A
S214081D20E8A60720C8A60720DCA607209CA7072049
S214081D30E0A60720C0A70720A0A7072010A707200F
S214081D40F911080009130800C9120800F111080063
S214081D50A4A70720FCA6072010B584B0002300938C
S214081D600193029303930E480E4982220E4CA04715
S214081D7001280ED10D4B984701280AD10C4B9847DD
S214081D8001220C4B1A6000220B4B1A600B4B98472B
S214081D9004E018B9064B984700BFFDE704B010BD2D
S214081DA0A9200800442C0800511B08003D250800FF
S214081DB0D9120800E0A6072098A70720A513080050
S214081DC0024B1A6801321A60704700BF78A70720CE
S214081DD010B5044B9847044B1C68044B984720469C
S214081DE010BD00BFE912080098A7072009130800CD
S214081DF02DE9F0413A4B1B68002B6BD1394B1A681A
S214081E0001321A601B6803BB374B1B681B681BB183
S214081E10364B984700BFFDE7334B1968344A1068BD
S214081E2018601160334A1168013111601B681B681D
S214081E3023B94FF0FF32304B1A6006E02A4B1B6876
S214081E40DB68DB685A682C4B1A60264B1A682A4BE4
S214081E501B689A4242D3244B1B681B684BB1224B23
S214081E601B68DB68DC6863681E4A1268934213D9ED
S214081E700EE04FF0FF32204B1A60BDE8F0811A4B97
S214081E801B68DB68DC686368164A1268934207D9E1
S214081E90194A1360BDE8F081184E194FDFF86C80B8
S214081EA0251D2846B047A36A13B104F11800B047A9
S214081EB0E36A3A68934288BF3B6003EB830008EB0B
S214081EC0800029460F4B9847074B1B681B68002B5A
S214081ED0D5D1CEE70C4B1A6801321A60BDE8F081FE
S214081EE078A7072098A70720DCA60720D91208009D
S214081EF09CA7072094A7072038010720511208003E
S214081F0010A70720F9110800C4A6072014A7072061
S214081F102DE9F843314B1B681BB9314B984700BF76
S214081F20FDE7304B98472D4B1A68013A1A601B6834
S214081F30002B48D12C4B1B68002B46D00025DFF819
S214081F40D4802A4F2A4E1DE0D8F80C30DC6804F1FD
S214081F501800B84704F104094846B847E36A3268E7
S214081F60934288BF336003EB8303224800EB830069
S214081F704946214B9847214B1B68E26ADB6A9A421E
S214081F8028BF0125D8F80030002BDDD11C4B1B6874
S214081F9063B11B4B1B687BB11A4D194CA8472368C5
S214081FA0013B23602368002BF8D105E0012D03D000
S214081FB0154B1B68012B0AD10022134B1A60134BD2
S214081FC09847012404E0002402E0002400E00024EE
S214081FD00F4B98472046BDE8F88300BF78A7072030
S214081FE0D9120800E9120800BCA7072051120800F9
S214081FF010A7072014A70720F91108007CA70720B8
S214082000C4A60720F11D0800B8A70720C9120800B3
S2140820100913080080A7072038B50C46054618B9E6
S214082020194B984700BFFDE719B9174B984700BFEB
S214082030FDE7164B98472B681C44154A12689342CE
S21408204007D9A3421CD9124B1B682C609C420FD997
S21408205006E0A34212D80E4B1B689C420ED80FE02F
S2140820600C4B186804300C4B984720460B4B984787
S2140820700B4B984730B90B4B984738BD2C60EFE7A9
S2140820802C60F5E738BD00BFD9120800C11D08004E
S21408209098A707207CA7072051120800F91A0800FD
S2140820A0111F0800C912080080B5154D154EDFF837
S2140820B078801CE0144B9847144B1C68144B9847C0
S2140820C0ACB1144B9847114BDB68DC68201D124BEB
S2140820D09847124B1A68013A1A602B68013B2B6026
S2140820E00F4B9847206B0F4FB8472046B8472B68CA
S2140820F0002BDFD13368012BF9D9C047F7E700BFBB
S214082100E4A6072014A70720C11D0800E8A6072094
S214082110111F0800E912080051120800BCA7072082
S21408212009130800F9140800C912080008B51D4B61
S2140821301B685BB91C4B1B6803EB83039B001B4A9D
S214082140D358CBB9184B1B6853B905E00122184B76
S2140821501A6008BD1A682AB9164B984700BFFDE7EB
S214082160114B12491A68013A1A601A6802EB820281
S21408217051F82220002AEDD00B4B1B6803EB830393
S2140821800A4A02EB83035A6852685A6003F1080148
S2140821908A4204BF52685A605B68DA68064B1A605F
S2140821A008BD00BF78A7072010A7072014A7072098
S2140821B0B8A70720D91208007CA7072038B50C4610
S2140821C018B90E4B984700BFFDE70D4D2968183122
S2140821D00C4B9847286804300B4B9847B4F1FF3FE0
S2140821E005D1296809480431094B984738BD094B79
S2140821F018682044084B984738BD00BFD912080015
S2140822007CA707201512080051120800C8A6072048
S214082210F911080098A70720F91A080038B50D46DE
S21408222018B9094B984700BFFDE7084C21681831D4
S214082230074B984720680430064B9847064B1868A3
S2140822402844064B984738BDD91208007CA70720B3
S214082250F91108005112080098A70720F91A080073
S21408226038B5C368DC681CB9164B984700BFFDE74D
S21408227004F118052846144B9847144B1B689BB95D
S214082280251D2846104B9847E36A114A1268934260
S21408229084BF0F4A136003EB83030E4800EB8300EA
S2140822A029460D4B984703E00C4829460A4B9847A1
S2140822B00B4B1B68E06ADB6A984234BF002001209B
S2140822C038BD00BFD91208005112080078A70720A9
S2140822D010A7072014A70720F911080080A70720D1
S2140822E07CA7072008B518B9054B984700BFFDE737
S2140822F0044A12680260044A1268426008BD00BFB9
S214082300D912080094A7072098A7072038B50D46C5
S214082310044618B9184B984700BFFDE719B9164B7D
S214082320984700BFFDE7154B98472B68B3F1FF3F6A
S21408233019D0134A116822688A4204D0114A1168D3
S21408234062688A4211D90F4A11686268891A8B42F4
S2140823500DD90C490968521A13442B6020460A4BBB
S2140823609847002404E0002402E0012400E0012449
S214082370064B9847204638BDD9120800E9120800CF
S21408238094A7072098A70720E52208000913080045
S2140823900122014B1A607047B8A70720014B18683E
S2140823A0704700BF7CA70720054B1B6833B1054B59
S2140823B01B68002B14BF02200120704700207047BE
S2140823C0E0A6072078A7072038B5044600282ED0B0
S2140823D0C36A174A1268D26A934228D2144A126805
S2140823E0D26AC2F10502826103EB8303114A02EB4B
S2140823F0830342699A4216D1051D28460E4B984714
S2140824000B4B1B68DB6AE3620C4A1268934284BF74
S2140824100A4A136003EB8303064800EB8300294649
S214082420074B984738BD024B1B68DB6AC36238BD4A
S2140824307CA7072014A707205112080010A707201A
S214082440F911080038B50446D0B1C26A836C9A42BE
S21408245016D0051D28460B4B9847A36CE362C3F1BC
S2140824600502A261084A1268934284BF064A1360AE
S21408247003EB8303054800EB83002946044B984783
S21408248038BD00BF5112080010A7072014A7072060
S214082490F911080010B504464160206191420AD837
S2140824A0D21A81698A4211D20A4B1868211D0A4B32
S2140824B09847002010BD9A4201D2994208D2074B8D
S2140824C01868211D044B9847002010BD012010BD38
S2140824D0012010BDF8A7072015120800C4A707207A
S2140824E070B50D4B98470D4B1B688BB90C4D28469D
S2140824F00C4EB0470C4C2046B0470C4B1D600C4B9E
S2140825001C6005200C2100220A4B9847034B1860D4
S214082510094B984770BD00BFE9120800F4A70720CA
S214082520C8A70720D9110800DCA70720C4A70720DA
S214082530F8A70720C11608000913080010B584B0CC
S2140825400B4B98470B4B1B6863B10423009300237F
S214082550019302930393084808494FF48272084C83
S214082560A04718B9074B984700BFFDE704B010BD51
S214082570E1240800F4A7072091260800502C08003C
S214082580511B0800D912080010B584B00F4C2468F7
S214082590C4B10191029203906BB90D4B984701287C
S2140825A00A4B186801A907BF069A0023002213469B
S2140825B0084CA04707E0204601A91A460023064C07
S2140825C0A04700E0002004B010BD00BFF4A7072015
S2140825D0A923080041170800C11808002DE9F0478C
S2140825E082B08146224B98478046224B1B68984209
S2140825F034D2214E214F24E0DA68D2F800A0DB68F6
S214082600DC68251D2846B847636A20469847E3696C
S214082610012B16D1A3695344534506D96360246138
S21408262030682946164B98470BE00023009320464F
S21408263019465246134CA04718B9134B984700BF83
S214082640FDE733681A68002AD6D1104A11680A4886
S214082650016013600123C9F8003002E00023C9F8BE
S2140826600030044BC3F80080404602B0BDE8F0874F
S214082670D11D0800F0A70720C4A70720511208009C
S2140826801512080089250800D9120800F8A707209F
S2140826902DE9F04387B04D4DDFF860814C4B1B6841
S2140826A01A68002A00F08780DB681E68494B98473E
S2140826B003A8494B98470746039B002B30D1864210
S2140826C024D8464B9847424B1B68DB68DC68201DBD
S2140826D0C047E369012B14D1A169204631443A4624
S2140826E033463F4FB84701280BD1002300932046B6
S2140826F0194632463B4EB04718B93B4B984700BF81
S214082700FDE7636A204698470CE000262868F11B18
S214082710364B9847314B984720B9354B984701E0D8
S2140827202E4B984702A82C4B98470746314EDFF8A1
S214082730B09038E0059C1CB1616909B1201DC047FE
S214082740039902291FD003292AD000292BD1049BDC
S214082750A169204619443A46C847012823D1636A26
S21408276020469847E369012B1DD1A26900230093F0
S21408277020461946049C22441A4CA04798B91A4B7E
S214082780984700BFFDE70499A16119B9164B984709
S21408279000BFFDE7204639443A463B46C84702E0B4
S2140827A02046154B9847286803A900221346B047C9
S2140827B00028BFD172E7074B984703A8064B9847EF
S2140827C00746039B002BA0D0AAE700BFF4A7072064
S2140827D0C4A70720C11D0800DD250800111F080032
S2140827E09524080089250800D9120800AD1A0800A3
S2140827F0C912080051190800F914080051120800F7
S21408280070B584B0184B9847184B98470820184B53
S214082810984718481849194A194B9847194E30606E
S21408282000240094019402940394174817494FF41F
S21408283080722346164DA847009401940294039488
S214082840144815494FF480722346A847009401940B
S21408285002940394114812494FF480723346A847ED
S214082860104B9847FEE700BFBD050800950A08000C
S214082870210F080000080E407C2C08003C010720A9
S214082880E9010800FCA7072031050800582C0800B5
S214082890511B080055050800642C08007905080037
S2140828A0702C0800591D080070B50F4E0F4D761B8A
S2140828B0B61007D0043D0024013455F8043F984765
S2140828C0A642F9D10A4E0B4D00F0E8F9761BB61071
S2140828D008D0043D0024013455F8043F9847A64222
S2140828E0F9D170BD70BD00BFA82C0800A82C080040
S2140828F0B02C0800A82C0800844641EA000313F010
S214082900030349D1403A23D30B6803604B684360FE
S2140829108B688360CB68C3600B6903614B6943614E
S2140829208B698361CB69C3610B6A03624B6A436236
S2140829308B6A8362CB6AC3620B6B03634B6B43631E
S2140829408B6B8363CB6BC36340304031403ADBD23A
S21408295030320BD30B6803604B6843608B68836028
S214082960CB68C36010301031103AF3D20C3205D35E
S21408297051F8043B40F8043B043AF9D2043208D034
S214082980D2071CBF11F8013B00F8013B01D30B88A6
S21408299003806046704700BF082A13D38B07B1D060
S2140829A010F00303AED0C3F10403D21ADB071CBF32
S2140829B011F8013B00F8013BA4D331F8023B20F89C
S2140829C0023B9FE7043AD9D3013A11F8013B00F8D5
S2140829D0013BF9D20B7803704B7843708B78837081
S2140829E060467047F0B4840743D0541E002A3ED091
S2140829F0CDB2034603E0621E002C38D0144603F816
S214082A00015B9A07F7D1032C2AD9CDB245EA0525EA
S214082A100F2C45EA054515D9A4F110073F0903F11F
S214082A20100606EB07161A46156055609560D560C1
S214082A301032B242F8D104F00F040137032C03EB2E
S214082A4007130DD91E462246043A032A46F8045BA5
S214082A50FAD8221F22F003020432134404F00304B7
S214082A602CB1C9B21C4403F8011BA342FBD1F0BC2D
S214082A70704714460346C6E740EA01039B0770B44E
S214082A802AD1032A28D90C460346214654F8045B63
S214082A90A5F1013626EA050616F0803F05D1043A68
S214082AA0032A43F8045B2146EFD89AB10C78013A1A
S214082AB01C7001333CB16AB111F8014F013A03F8B2
S214082AC0014B002CF7D12AB11A44002103F8011B48
S214082AD09342FBD170BC70470346E6E7024B13B13E
S214082AE0024800F005B8704700000000FD2A0800FC
S214082AF0014600200246034600F018B838B5094DCE
S214082B00094C641BA41018BF05EB840505D0013CCE
S214082B1055F8043D9847002CF9D1BDE8384000F038
S214082B20C7B800BFBC2C0800C02C0800F0B5274C5E
S214082B3085B026680746D6F84841002C40D0656818
S214082B401F2D1EDD224818B94FF0FF3005B0F0BD26
S214082B504FF4C870039102920193AFF30080039973
S214082B600446029A019B0028EED0D6F84851002069
S214082B70256060600546C6F84841C4F88801C4F870
S214082B808C013FB96B1C00200235636044F82510A1
S214082B9005B0F0BD0126AE4004EB8500C0F88820DD
S214082BA0D4F88821022F42EA0602C4F88821C0F821
S214082BB00831E7D1D4F88C311E43C4F88C61E1E7BC
S214082BC006F5A674C6F84841B9E700BF982C080071
S214082BD00000000000080E4000090E400800000033
S214082BE00800000030303030303030300000000050
S214082BF00080094000810940110000001100000013
S214082C0000C0094000C10940120000001200000080
S214082C1000000A4000010A401300000013000000EC
S214082C2000400A4000410A4014000000140000005A
S214082C302573090925630925750925750925750D5F
S214082C400A00000049444C45000000000D0A000038
S214082C50546D7220537663007461736B5F64756D90
S214082C606D7931007461736B5F64756D6D793200D0
S214082C707461736B5F7561727400000000C20100B6
S214082C80C00000000008000000000000000000006F
S214082C90000000004300000050010720F8B500BF00
S214082CA0F8BC08BC9E467047DD2A080019010800D3
S214082CB0F8B500BFF8BC08BC9E467047F50008008B
S214082CC04FF48063204A136002F5007213601F4BAE
S214082CD01B6A13F0807F07D11D4A1C4B1A621A46DE
S214082CE0936E13F0010FFBD01A4A184B1A621A4655
S214082CF0936E13F4803FFBD0144B1A6B22F003023A
S214082D0042F001021A631A46936E13F0080FFBD0BE
S214082D10114A0E4B9A621A46936E13F0020FFBD0B6
S214082D2011220A4B1A631A46936E13F0080FFBD04B
S214082D301222064B1A631A46936E13F0080FFBD03E
S214082D40064A074B1A607047000A0E4000060E40F7
S214082D500908370009083701013F0D2000BD0105A5
S214082D602C0107201B4B984206D800231A4A1360EA
S214082D7002F5007213607047184B984207D84FF454
S214082D808073154A136002F5007213607047144B7F
S214082D90984207D84FF400730F4A136002F5007282
S214082DA0136070470F4B984207D84FF440730A4A8F
S214082DB0136002F50072136070470B4B984294BF7D
S214082DC04FF480634FF4A063034A136002F5007261
S214082DD013607047BFEA2101000A0E407FF0FA022E
S214082DE0FF8FD003FFB3C4047F4A5D0500093D008A
S214082DF0AAAAAAAA00A00000FFFFFFFF0CA80720A7
S214082E00080000000E000000010700000000000097
S214082E10000000003C040720A40407200C05072037
S214082E200000000000000000000000000000000095
S214082E300000000000000000000000000000000085
S214082E4000000000942C08000000000000000000AD
S214082E500000000000000000000000000000000065
S214082E600000000000000000000000000000000055
S214082E700000000000000000000000000000000045
S214082E800000000000000000000000000000000035
S214082E900000000000000000000000000000000025
S214082EA00000000000000000000000000000000015
S214082EB00000000000000000010000000000000004
S214082EC00E33CDAB34126DE6ECDE05000B000000C9
S214082ED000000000000000000000000000000000E5
S214082EE000000000000000000000000000000000D5
S214082EF000000000000000000000000000000000C5
S214082F0000000000000000000000000000000000B4
S80408100DD6
