S01F0000706C6174666F726D677275707065726E61735F52544F532E73726563B2
S214080000C0CC07205D0A0800590A0800590A0800EB
S214080010590A0800590A0800590A08000000000092
S214080020000000000000000000000000490D080065
S214080030590A080000000000C50D0800010E080057
S214080040590A0800590A0800590A0800590A0800F7
S214080050590A0800590A0800590A0800590A0800E7
S214080060590A0800590A080000000000C9080800D4
S214080070DD080800F108080005090800000000006F
S21408008000000000190408002D240800590A08007A
S214080090590A0800590A0800590A0800590A0800A7
S2140800A0590A080000000000590A0800590A080002
S2140800B0590A0800590A0800590A0800590A080087
S2140800C0590A0800590A0800590A0800590A080077
S2140800D0590A0800590A0800590A0800590A080067
S2140800E0590A0800590A0800590A0800590A080057
S2140800F0590A080010B5054C237833B9044B13B1D8
S2140801000448AFF300800123237010BDF0090720D0
S21408011000000000908C080008B5064B1BB1064886
S2140801200649AFF300800648036813B1054B03B1D0
S214080130984708BD00000000908C0800F4090720C6
S214080140908C0800000000002DE9F04F83B00546AB
S2140801509046002A47D04E1C254F264CDFF8A8A00C
S214080160DFF894B006F1FF3900230193224B9D4235
S21408017006D158464946214B98470028F9D119E038
S2140801801F4B9D4209D19946484601A9A047002819
S214080190FAD1019B06F8013C17E01A4B9D4209D19B
S2140801A09946484601A9A0470028FAD1019B06F8B7
S2140801B0013C14E0554508D1504601A9A04700283F
S2140801C0FAD1019B06F8013C09E0BD4207D1384642
S2140801D001A9A0470028FAD1019B06F8013C013680
S2140801E0B8F10108BED1002003B0BDE8F08F00BF0B
S2140801F000400A400104080000080E40E902080012
S2140802000080094000C0094000000A402DE9F0417E
S2140802100C46904660B9002A0EDD8F18094E0A4D26
S214080220306821462B6898470134BC42F8D106E06E
S2140802304FF0FF30BDE8F0810020BDE8F081404671
S214080240BDE8F081ACAC0720A4AC07202DE9F0414E
S2140802500E461546013802280FD892B10024DFF85A
S2140802603C800D4FD8F80000315D3B689847002861
S2140802700ADB0134A542F5D10AE04FF0FF30BDE8AD
S214080280F0810020BDE8F0814FF0FF30BDE8F08136
S2140802902046BDE8F08100BFA8AC0720ACAC07201C
S2140802A010B4AC2303600A684B68B2FBF3F31B096F
S2140802B05C1E4FF6FE7294420AD803628B6843604F
S2140802C040F20223C0F8203150230360002000E0EB
S2140802D001205DF8044B7047436913F0020F1ABFFC
S2140802E0C161002001207047436913F0010F1DBF4C
S2140802F083690B7000200120704700BF10B40B0103
S21408030093420DD91AE0416841F40021416042EA5F
S21408031003430362002020E001201EE001201CE0C9
S214080320D20002EB5302B2FBF3F3DA0803F007033A
S214080330541E4FF6FE718C42E9D9EDE7C900D3008A
S21408034003EB5103B3FBF1F3DA0803F00703541E7B
S2140803504FF6FE718C42D6D9E0E75DF8044B70473D
S214080360084BC0F8E4300023436043628362882366
S2140803700360242303604FF4807303604FF4002364
S214080380036070470041535570B505460C4616463F
S2140803900F4B984700210F4B19609CB128462168DF
S2140803A032460D4B9847034670B9A16862680A43FF
S2140803B021690A43E068024306490A6069680A43F5
S2140803C06A6002E0012300E00123184670BD00BF02
S2140803D0610308000C0A0720FD020800402303609A
S2140803E0704700BF10230360704700BF436913F0CF
S2140803F0020F1DBFC1F30801C1610020012070472C
S214080400436913F0010F05D08369C3F308030B6033
S214080410002070470120704700B583B013480DF1DF
S21408042007010122124B984772B6BFF35F8F00226E
S214080430104B1A70104B1A7801321A700F4B1B7833
S2140804409DF807100E4AD1549B2B03D100220B4B64
S2140804501A7002E00133094A13700122054B1A701C
S214080460BFF35F8F62B603B05DF804FB00800940F7
S2140804704901080038010720AD0A0720AC0A072002
S214080480100A072070B582B0054B984702AC44F8AE
S214080490040D4FF4FA76034D20463146A847FBE78D
S2140804A0E51708002D1A080070B582B0054B984766
S2140804B002AC44F8040D4FF4FA76034D2046314654
S2140804C0A847FBE7E51708002D1A08002DE9F041B4
S2140804D084B01A4B98470390194DDFF87C806B69F7
S2140804E013F0020F1CBF7223EB61002426463C273C
S2140804F03846C0476B6913F0010F05D1013442F244
S21408050010739C42F4D908E0731CAA6904A90E4427
S21408051006F80C2CDEB20024EAE7684609499DF87E
S2140805200420094B984709486946094B984703A889
S2140805304FF4FA71074B9847D1E700BFE517080054
S21408054000C00940608A080015280800648A080068
S2140805505D2508002D1A08000100072010B50E4872
S2140805600E4B984700203E210D4B98470D4CA04750
S2140805700028FCD00C4B98470C4A0D4B9A620D4C41
S214080580A0470028FCD010200B4B98470B4B9847E9
S2140805900148024B984710BD00BD0105B100072071
S2140805A07D090800D1090800E1090800013F0D206F
S2140805B000060E40F1090800190908000D0B08008E
S2140805C010B54FF400421D4B5A600B201C4CA04738
S2140805D00C20A0470D20A0470E20A0473B204FF038
S2140805E06051184CA04755204FF06051A047562040
S2140805F04FF06051A04768201349A0475C20134974
S214080600A04713484FF44053036643654362C0F857
S2140806108030026F22F44052026743604FF4407104
S2140806204FF000620B4B98472B204FF00061A04715
S2140806302A204FF00061A04710BD00BF501A0E4098
S214080640010A0800FD0608007900002801000028B5
S214080650000E0E40D10708004264B1F1805F16D044
S21408066004D8C1B1B1F1006F0AD013E0B1F1405F10
S21408067011D0B1F1605F0ED0B1F1205F0AD170479A
S214080680036F016F0B4023EA0203036702E0036F60
S2140806901343036742607047416412F0010F14BFAA
S2140806A04166016612F00A0F14BF0162416212F039
S2140806B0020F02D0C0F8801004E012F0080F18BF2E
S2140806C0C0F8841041610160704700BF10B44164EF
S2140806D0019C0CB1416600E001660BB1016500E0C3
S2140806E041650AB1016300E04163016101605DF89C
S2140806F0044B7047C06C7047806C704770B582B00A
S2140807000D46440904F5001404F20774660201F065
S214080710F044B4F1205F30D006D8B4F1006F0AD0A8
S214080720B4F1805F18D049E0B4F1405F30D0B4F13E
S214080730605F2DD042E000F01F0001248440304660
S2140807404FF0006122461F4B984715F0010F14BF63
S21408075074663466012032E000F01F0001248440ED
S21408076030464FF080512246164B984715F0010F39
S21408077014BF74663466012021E000F01F010124CE
S214080780304604FA01F12A460F4B9847204616E0F1
S21408079000F01F01012405F0605205EA04030093E7
S2140807A0304604FA01F1B2F1605F14BF002201225C
S2140807B0C5F38003054DA847204600E0002002B098
S2140807C070BD00BF5906080099060800CD06080047
S2140807D0F0B583B007460E46154602F0F044B4F16D
S2140807E0205F26D006D8B4F1006F0AD0B4F1805F37
S2140807F013D034E0B4F1405F1FD0B4F1605F1CD072
S2140808002DE04FF000613246164B984715F0010F61
S21408081014BF7E663E66012022E04FF080513246C5
S214080820104B984715F0010F14BF7E663E660120F0
S21408083016E00D4B9847012012E005F0605205F0CF
S2140808400103009338463146B2F1605F14BF0022B8
S2140808500122C5F38003054CA047012000E00020D4
S21408086003B0F0BD5906080099060800CD06080032
S2140808702DE9F04104460E46104B9847054620469B
S2140808800F4B9847054017D00E4F07F10C046C37EE
S21408089054F80C3CB3420AD154F8081C294206D036
S2140808A023683046984754F8083C25EA0305BC42B6
S2140808B002D01034002DEBD1BDE8F081F506080013
S2140808C0F9060800B00A072008B502480B21024BB3
S2140808D0984708BD000E0E407108080008B5024883
S2140808E00C21024B984708BD00100E4071080800FE
S2140808F008B502480D21024B984708BD00120E4065
S2140809007108080008B502480E21024B984708BD32
S21408091000140E4071080800174B1A6B22F070027C
S214080920104318639B6E13F0080F09D14FF4006349
S214080930114901E0013B19D08A6E12F0080FF9D070
S2140809400D4B1A6B22F0030242F002021A63986EED
S21408095010F008000CD14FF40063074901E0013B92
S21408096008D08A6E12F0080FF9D070470120704739
S214080970002070470120704700060E4038B1114924
S2140809800B6A114A1A40114B13430B6270470D4A03
S214080990136A23F45C1323F0030343F45C1343F055
S2140809A00103090289B20B431362936E13F0010F19
S2140809B0FBD0044A136A43F09B7343F480331362F4
S2140809C0704700BF00060E40FCFFC8FE0200370155
S2140809D0024B986E00F48030704700BF00060E4049
S2140809E04FF00052014B9A62704700BF00060E4057
S2140809F0024B986E00F00200704700BF00060E40DB
S214080A002C2820D81F280DD8124B9A69012383401A
S214080A101A40934219D0012303FA00F00D4B1861CF
S214080A20002070470B4BD3F8082120380123834059
S214080A301A4093420BD0012303FA00F0054BC3F883
S214080A4000010020704701207047002070470020F2
S214080A50704700BF00060E40FEE700BF10B51E4BED
S214080A601E4A9A4203D01E4B1B4A9A4204D31D4B79
S214080A701D4A9A420FD31AE01C4B1D4CE41A24F068
S214080A80030404340023144814495A581A500433EB
S214080A90A342FAD1EBE7174B1749C91A21F003010D
S214080AA01A1D1144002243F8042F8B42FBD1134A27
S214080AB022F0604323F07F0311498B6002F1604205
S214080AC0B2F5801F03D28A6842F000528A600D4B46
S214080AD098470D4B9847FEE700000720908C0800C3
S214080AE0EC090720BCAC0720F00907200400072003
S214080AF0EF090720EC090720B7AC0720000008001C
S214080B0000ED00E00D250800892408003E4B1B6B0D
S214080B1003F00303032B5FD8DFE803F0020E2B2B4A
S214080B203A4B5B6913F0800F14BF4FF400424FF442
S214080B30FA42374B1A604FE0334B1B6A13F0807F3C
S214080B4003D0344A324B1A6046E0334A304B1A60B8
S214080B502D4B1B6A03F07003102B02D0202B04D0F9
S214080B603AE02E4A2A4B1A6036E02A4A284B1A6080
S214080B7032E0254B1B6A13F0807F03D0254A244BAE
S214080B801A6012E0244A224B1A601F4B1B6A03F0B5
S214080B907003102B02D0202B04D006E01F4A1C4BF3
S214080BA01A6002E01B4A1A4B1A60174B1B6B03F0BD
S214080BB00303022B0DD1144B986A996A144BC0F3A1
S214080BC00A401A6800FB0222C9B2B2FBF1F21A60A8
S214080BD002E0134A0E4B1A600B4B1B6B03F07003B4
S214080BE0702B07D10A4B1A680E49A1FB020252085D
S214080BF01A607047044B196B054BC1F302111A684B
S214080C00CA401A60704700BF00060E40101A0E4011
S214080C103C010720001BB70000093D0000127A00BF
S214080C20001C4E0EABAAAAAA094B1B6813B9094AA0
S214080C30074B1A60064B1B681A180749914204DBD3
S214080C401046034A1060184670474FF0FF3070474A
S214080C50200B0720C0CC0720FC7F08204FF0FF3071
S214080C60704700BF4FF400534B600020704700BF2A
S214080C70012070470020704700F1080343604FF0DA
S214080C80FF328260C360036100230360704700BFC1
S214080C9000230361704700BF43685A684A60426889
S214080CA08A605A6891605960416008610368013338
S214080CB00360704710B40C68B4F1FF3F01D10369B4
S214080CC00AE000F10803C2681268944204D35B681D
S214080CD05A6812689442FAD25A684A6091608B60E1
S214080CE0596008610368013303605DF8044B704778
S214080CF0436882689A60836842685A6003695A68DB
S214080D00824204BF82685A60002202611A68013A69
S214080D101A601868704700BF03480068006880F3C8
S214080D20088862B600DF00BF08ED00E04FF0807369
S214080D3040F8043C40F8081C002340F80C3C40F8F7
S214080D40202C4038704700BF064B19680868B0E882
S214080D50F00F80F309884FF0000080F311884EF0FA
S214080D600D0E7047ECAB07204FF08052014B1A600F
S214080D70704700BF04ED00E0EFF311804FF0A001CC
S214080D8081F311887047002008B5034B9847034B3A
S214080D901A6801321A6008BD790D0800400107205C
S214080DA080F31188704700BF08B5044A1368013BF2
S214080DB0136013B90020024B984708BD400107206E
S214080DC0A10D0800EFF309800C4B1A6820E9F00F14
S214080DD010602DE908404FF0A00080F3118800F05D
S214080DE0AFFE4FF0000080F31188BDE80840196890
S214080DF00868B0E8F00F80F309887047ECAB072066
S214080E0008B54FF08052054B1A60054B9847054BBE
S214080E1098470020044B984708BD00BF04ED00E043
S214080E20790D080005180800A10D0800034A044BB0
S214080E301A600722043B1A60704700BF1F4801006B
S214080E4014E000E010B5094B1A6842F470021A6004
S214080E501A6842F070421A60054B98470024054B02
S214080E601C60054B9847204610BD00BF20ED00E0EB
S214080E702D0E080040010720190D080030B4134A4B
S214080E801368834201D21A46FAE7114654681519C0
S214080E90854203D168680444546010464268841842
S214080EA0A3420CD10A4C24689C4206D05B681A44BC
S214080EB042600B681B68036002E0036000E00360A2
S214080EC0814218BF086030BC704700BF2CAB0720B3
S214080ED028AB072038B50446284B9847284B1B688C
S214080EE09BB9284A284B13600021516049F6F072D6
S214080EF09818234D286049F6F475595199505A6048
S214080F001860224B1A68103A1A60002C2DD004F18B
S214080F10100212F0070F1CBF22F007020832511EFB
S214080F2049F6FE73994222D816490C6863689A42B5
S214080F3004D9236813B121461C46F7E7104B1B68F3
S214080F409C4216D00D68103523680B6063689B1AA0
S214080F50202B04D9A018436062600D4B98470B4BB2
S214080F601A686168521A1A6004E0002502E0002533
S214080F7000E00025074B9847284638BDD5170800D7
S214080F8028AB07202CAB0720280B07204401072096
S214080F907D0E08002519080010B5044668B1074BF1
S214080FA09847074B196854F80C2C0A441A60A4F1A1
S214080FB01000044B9847044B984710BDD5170800F7
S214080FC0440107207D0E08002519080010B50446C0
S214080FD0036C3BB903681BBB4068134B9847002358
S214080FE063601DE06AB980681A46104B9847A26885
S214080FF0236C1344A3606268934211D32368A360EA
S2140810000EE0C0681A46094B9847226C5242E368BD
S2140810101344E36021688B4202D263681A44E26094
S214081020A36B0133A36310BD591E0800852508006D
S21408103038B5034605685DB1026CC4681444C460DC
S2140810404068844228BFDD600846D968014B984747
S21408105038BD00BF85250800F8B504461D4B9847DF
S214081060A36C002B12DD636A83B104F124061A4DC3
S2140810701A4F01E0636A4BB13046A84700B1B8473B
S214081080A36C013BA364A36C002BF3DC4FF0FF3387
S214081090A364134B98470F4B9847636C002B12DDDD
S2140810A0236983B104F110060B4D0C4F01E0236948
S2140810B04BB13046A84700B1B847636C013B636440
S2140810C0636C002BF3DC4FF0FF336364044B9847E4
S2140810D0F8BD00BF890D0800751C0800A51D08008E
S2140810E0A90D080038B50D46044618B9164B98479A
S2140810F000BFFDE7154B98472368226CE06B00FBA2
S21408110002F0191861600021A163A360821A1344D3
S214081110E3604FF0FF336364A36455B923697BB17A
S21408112004F110000A4B9847012809D1094B984743
S21408113006E004F11000084DA84704F12400A8476B
S214081140064B9847012038BD790D0800890D080020
S214081150751C0800690D0800790C0800A90D080020
S214081160F8B50D461746064688B150200E4B9847E8
S214081170044660B105FB06F001300B4B984720602B
S21408118040B92046094B984701E000BFFDE7084BE9
S2140811909847FAE7E663256420460121054B9847F9
S2140811A084F84D702046F8BDD50E0800990F080043
S2140811B0790D0800E51008002DE9F04F85B08A463D
S2140811C001929B46044618B9364B984700BFFDE780
S2140811D009B9036C1BB90027334E344D03E0314B75
S2140811E0984700BFFDE7B047A26BE36B9A4212D25E
S2140811F0204651465A462E4B9847636A3BB104F13F
S21408120024002C4B9847012801D12B4B9847274B95
S2140812109847012043E0019B1BB9244B98470020C0
S2140812203DE01FB902A8254B98470127A847244B3D
S2140812309847B047636CB3F1FF3F04BF002363646D
S214081240A36CB3F1FF3F04BF0023A364A84702A81A
S21408125001A91C4B9847E0B9B047D4F83890D4F8A1
S2140812603C80A847C1450ED104F110000199164BE1
S21408127098472046154B9847154B98470028B2D1F3
S2140812800D4B9847AFE72046104B9847104B9847AA
S214081290A9E720460D4B98470D4B9847002005B008
S2140812A0BDE8F08F790D0800890D0800A90D080023
S2140812B0CD0F0800751C0800690D0800F91C080009
S2140812C0D5170800211D0800D11B08005910080072
S2140812D0251908002DE9F0410E461546984604469D
S2140812E018B91C4B984700BFFDE729B9036C1BB11A
S2140812F0184B984700BFFDE7164B98470746A26B62
S214081300E36B9A4218D2204631464246124B98471B
S214081310A36CB3F1FF3F0AD1636A7BB104F12400E2
S2140813200E4B984760B16DB101242C600BE0A36C9E
S2140813300133A364012406E0002404E0012402E04B
S214081340012400E001243846054B98472046BDE8AE
S214081350F08100BF790D0800CD0F0800751C080045
S214081360A10D08002DE9F04F85B0894601929A46EE
S214081370044618B9444B984700BFFDE709B9036C03
S2140813802BB90027414EDFF834B1414D03E03E4B00
S214081390984700BFFDE7B047A36B002B28D0E56849
S2140813A0204649463B4B9847BAF1000F12D1A36B2B
S2140813B0013BA363236813B9374B984760602369DA
S2140813C093B104F11000354B984701280CD1344BE3
S2140813D0984709E0E560636A33B104F124002F4BAF
S2140813E0984708B12E4B9847294B9847012048E064
S2140813F0019B1BB9264B9847002042E017B902A864
S214081400D8470127A847274B9847B047636CB3F1DE
S214081410FF3F04BF00236364A36CB3F1FF3F04BF20
S2140814200023A364A84702A801A91F4B984710BB2E
S214081430B047D4F83880A847B8F1000F15D123680C
S21408144023B9B0476068194B9847A84704F12400A9
S2140814500199174B98472046164B9847164B9847BE
S214081460002898D10E4B984795E72046114B984789
S214081470114B98478FE720460E4B98470E4B9847D8
S214081480002005B0BDE8F08F790D0800890D08002A
S214081490A90D080031100800B11D0800751C0800C9
S2140814A0690D0800D5170800211D0800DD1D080075
S2140814B0D11B08005910080025190800F91C080057
S2140814C038B504460D460D4B9847636CB3F1FF3F9D
S2140814D004BF00236364A36CB3F1FF3F04BF00237B
S2140814E0A364074B9847A36B23B904F12400294645
S2140814F0044B98472046044B984738BD890D08008A
S214081500A90D0800311C08005910080010B504463B
S2140815100E4B1B6858600E4B1B68984207D20D4B43
S21408152018680A4B196804310B4B984710BD0B4BCB
S2140815301868064B19680431074B9847084B1B6810
S2140815409C423CBF064B1C6010BD00BFECAB07209E
S21408155008AC07200CAC0720B50C08004CAB0720DD
S214081560480107202DE9F84F0E4617469A460A9D69
S214081570DDF83080814618B9624B984700BFFDE712
S214081580042D03D95F4B984700BFFDE74C205E4B00
S21408159098470446002800F0B180B8F1000F40F0E4
S2140815A0A980B800584B9847206318B92046574B6F
S2140815B09847A3E0A521BA00554B984707F18047FE
S2140815C0013F236B03EB870323F0070B04F134007A
S2140815D031460A224F4B9847002384F83D30042DA5
S2140815E034BF2E460426E662A664271D3846DFF872
S2140815F07081C04704F11800C0472461C6F105068B
S214081600A6616462584649465246434B984720604E
S21408161010F0070F03D03B4B984700BFFDE70B9B26
S21408162003B11C603D4B98473D4B1A6801321A605F
S2140816303C4B1B682BBB3B4B1C60394B1B68012B78
S21408164029D1394E06F16409DFF8E0803046C047F4
S21408165014364E45FAD1DFF80C914846334EB0475B
S214081660DFF804814046B0473148B0473148B047B4
S2140816703148B047314BC3F80090314BC3F800806F
S21408168009E0304B1B6833B9264B1B68DB6A9D4262
S21408169024BF244B1C60E36A2B4A1268934284BF1B
S2140816A0294A1360294A1168216401311160284AC1
S2140816B01268934284BF264A136003EB83031A48D2
S2140816C000EB83003946234B9847234B98471D4B1E
S2140816D01B684BB1134B1B68DB6A9D4207D91F4B2F
S2140816E098470120BDE8F88F0120BDE8F88F012053
S2140816F0BDE8F88FC0F8308040465BE74FF0FF3013
S214081700BDE8F88F790D0800D50E0800990F080077
S21408171071260800C12808002D0D0800890D08004C
S2140817202CAC0720ECAB072084AB0720790C08000C
S214081730F0AB072058AB072038AB07204CAB072088
S2140817400CAC072050AB072030AC072010AC0720A5
S21408175080AB0720990C0800A90D0800690D080041
S214081760910C080014AC07206CAB072010B584B0A9
S214081770002300930193029303930E480E49822296
S2140817800E4CA04701280ED10D4B984701280AD1C8
S2140817900C4B984701220C4B1A6000220B4B1A6020
S2140817A00B4B984704E018B9064B984700BFFDE76F
S2140817B004B010BDBD1A0800808A08006515080028
S2140817C0511F0800790D080050AB072008AC072009
S2140817D0450E0800024B1A6801321A60704700BFAF
S2140817E0E8AB072010B5044B9847044B1C68044B1D
S2140817F09847204610BD00BF890D080008AC072092
S214081800A90D08002DE9F0413A4B1B68002B6BD157
S214081810394B1A6801321A601B6803BB374B1B68C2
S2140818201B681BB1364B984700BFFDE7334B19685A
S214081830344A106818601160334A11680131116023
S2140818401B681B6823B94FF0FF32304B1A6006E05E
S2140818502A4B1B68DB68DB685A682C4B1A60264BD9
S2140818601A682A4B1B689A4242D3244B1B681B688B
S2140818704BB1224B1B68DB68DC6863681E4A12683B
S214081880934213D90EE04FF0FF32204B1A60BDE8A2
S214081890F0811A4B1B68DB68DC686368164A1268B6
S2140818A0934207D9194A1360BDE8F081184E194FBC
S2140818B0DFF86C80251D2846B047A36A13B104F1EB
S2140818C01800B047E36A3A68934288BF3B6003EB68
S2140818D0830008EB800029460F4B9847074B1B6888
S2140818E01B68002BD5D1CEE70C4B1A6801321A605C
S2140818F0BDE8F081E8AB072008AC07204CAB072012
S214081900790D08000CAC072004AC07204801072016
S214081910F10C080080AB0720990C080034AB0720B0
S21408192084AB07202DE9F843314B1B681BB9314BB4
S214081930984700BFFDE7304B98472D4B1A68013A89
S2140819401A601B68002B48D12C4B1B68002B46D00E
S2140819500025DFF8D4802A4F2A4E1DE0D8F80C3030
S214081960DC6804F11800B84704F104094846B8478B
S214081970E36A3268934288BF336003EB83032248E6
S21408198000EB83004946214B9847214B1B68E26AC7
S214081990DB6A9A4228BF0125D8F80030002BDDD133
S2140819A01C4B1B6863B11B4B1B687BB11A4D194C4B
S2140819B0A8472368013B23602368002BF8D105E07D
S2140819C0012D03D0154B1B68012B0AD10022134B9F
S2140819D01A60134B9847012404E0002402E0002410
S2140819E000E000240F4B98472046BDE8F88300BF68
S2140819F0E8AB0720790D0800890D08002CAC0720F5
S214081A00F10C080080AB072084AB0720990C08006F
S214081A10ECAB072034AB07200518080028AC0720D5
S214081A20690D0800A90D0800F0AB072038B50C466C
S214081A30054618B9194B984700BFFDE719B9174B63
S214081A40984700BFFDE7164B98472B681C44154A75
S214081A501268934207D9A3421CD9124B1B682C6004
S214081A609C420FD906E0A34212D80E4B1B689C4234
S214081A700ED80FE00C4B186804300C4B98472046DD
S214081A800B4B98470B4B984730B90B4B984738BDCC
S214081A902C60EFE72C60F5E738BD00BF790D08002D
S214081AA0D517080008AC0720ECAB0720F10C080097
S214081AB00D15080025190800690D080080B5154D94
S214081AC0154EDFF878801CE0144B9847144B1C68BA
S214081AD0144B9847ACB1144B9847114BDB68DC683D
S214081AE0201D124B9847124B1A68013A1A602B6849
S214081AF0013B2B600F4B9847206B0F4FB84720468B
S214081B00B8472B68002BDFD13368012BF9D9C047BB
S214081B10F7E700BF54AB072084AB0720D5170800AB
S214081B2058AB072025190800890D0800F10C080095
S214081B302CAC0720A90D0800990F0800690D0800AD
S214081B4008B51D4B1B685BB91C4B1B6803EB83036E
S214081B509B001B4AD358CBB9184B1B6853B905E0F2
S214081B600122184B1A6008BD1A682AB9164B9847FE
S214081B7000BFFDE7114B12491A68013A1A601A6845
S214081B8002EB820251F82220002AEDD00B4B1B688C
S214081B9003EB83030A4A02EB83035A6852685A60C7
S214081BA003F108018A4204BF52685A605B68DA6823
S214081BB0064B1A6008BD00BFE8AB072080AB0720BD
S214081BC084AB072028AC0720790D0800ECAB07206B
S214081BD038B50C4618B90E4B984700BFFDE70D4DB3
S214081BE0296818310C4B9847286804300B4B9847DF
S214081BF0B4F1FF3F05D1296809480431094B9847D5
S214081C0038BD094B18682044084B984738BD00BFB4
S214081C10790D0800ECAB0720B50C0800F10C08009D
S214081C2038AB0720990C080008AC07200D150800EB
S214081C3038B50D4618B9094B984700BFFDE7084C5C
S214081C4021681831074B984720680430064B984798
S214081C50064B18682844064B984738BD790D080087
S214081C60ECAB0720990C0800F10C080008AC07201C
S214081C700D15080038B5C368DC681CB9164B9847BC
S214081C8000BFFDE704F118052846144B9847144B87
S214081C901B689BB9251D2846104B9847E36A114ACE
S214081CA01268934284BF0F4A136003EB83030E48FF
S214081CB000EB830029460D4B984703E00C4829465D
S214081CC00A4B98470B4B1B68E06ADB6A984234BF9E
S214081CD00020012038BD00BF790D0800F10C08006F
S214081CE0E8AB072080AB072084AB0720990C0800D8
S214081CF0F0AB0720ECAB072008B518B9054B98479A
S214081D0000BFFDE7044A12680260044A126842608F
S214081D1008BD00BF790D080004AC072008AC0720F2
S214081D2038B50D46044618B9184B984700BFFDE766
S214081D3019B9164B984700BFFDE7154B98472B680F
S214081D40B3F1FF3F19D0134A116822688A4204D0BB
S214081D50114A116862688A4211D90F4A1168626886
S214081D60891A8B420DD90C490968521A13442B60FC
S214081D7020460A4B9847002404E0002402E0012489
S214081D8000E00124064B9847204638BD790D080028
S214081D90890D080004AC072008AC0720F91C0800C9
S214081DA0A90D08000122014B1A60704728AC0720CD
S214081DB0014B1868704700BFECAB0720054B1B6843
S214081DC033B1054B1B68002B14BF02200120704757
S214081DD00020704750AB0720E8AB072038B504460C
S214081DE000282ED0C36A174A1268D26A934228D2AD
S214081DF0144A1268D26AC2F10502826103EB8303B1
S214081E00114A02EB830342699A4216D1051D2846F9
S214081E100E4B98470B4B1B68DB6AE3620C4A12684A
S214081E20934284BF0A4A136003EB8303064800EB19
S214081E3083002946074B984738BD024B1B68DB6A68
S214081E40C36238BDECAB072084AB0720F10C080052
S214081E5080AB0720990C080038B50446D0B1C26A92
S214081E60836C9A4216D0051D28460B4B9847A36CE0
S214081E70E362C3F10502A261084A1268934284BF6E
S214081E80064A136003EB8303054800EB83002946E4
S214081E90044B984738BD00BFF10C080080AB0720FC
S214081EA084AB0720990C080010B5044641602061F1
S214081EB091420AD8D21A81698A4211D20A4B186806
S214081EC0211D0A4B9847002010BD9A4201D299421C
S214081ED008D2074B1868211D044B9847002010BDF0
S214081EE0012010BD012010BD68AC0720B50C080005
S214081EF034AC072070B50D4B98470D4B1B688BB953
S214081F000C4D28460C4EB0470C4C2046B0470C4BA0
S214081F101D600C4B1C6005200C2100220A4B9847BC
S214081F20034B1860094B984770BD00BF890D080021
S214081F3064AC072038AC0720790C08004CAC0720A6
S214081F4034AC072068AC072061110800A90D08000A
S214081F5010B584B00B4B98470B4B1B6863B1042332
S214081F6000930023019302930393084808494FF40B
S214081F708272084CA04718B9074B984700BFFDE780
S214081F8004B010BDF51E080064AC0720A5200800A4
S214081F908C8A080065150800790D080010B584B00D
S214081FA00F4C2468C4B10191029203906BB90D4B93
S214081FB0984701280A4B186801A907BF069A002304
S214081FC000221346084CA04707E0204601A91A46F7
S214081FD00023064CA04700E0002004B010BD00BF58
S214081FE064AC0720BD1D0800B9110800D51208000A
S214081FF02DE9F04782B08146224B98478046224B0F
S2140820001B68984234D2214E214F24E0DA68D2F871
S21408201000A0DB68DC68251D2846B847636A2046AA
S2140820209847E369012B16D1A3695344534506D94B
S2140820306360246130682946164B98470BE00023F6
S2140820400093204619465246134CA04718B9134B1E
S214082050984700BFFDE733681A68002AD6D1104AA9
S21408206011680A48016013600123C9F8003002E0CD
S2140820700023C9F80030044BC3F80080404602B07D
S214082080BDE8F087E517080060AC072034AC0720E9
S214082090F10C0800B50C08009D1F0800790D080013
S2140820A068AC07202DE9F04387B04D4DDFF8608116
S2140820B04C4B1B681A68002A00F08780DB681E688D
S2140820C0494B984703A8494B98470746039B002B5C
S2140820D030D1864224D8464B9847424B1B68DB686B
S2140820E0DC68201DC047E369012B14D1A16920468E
S2140820F031443A4633463F4FB84701280BD10023B0
S21408210000932046194632463B4EB04718B93B4B1B
S214082110984700BFFDE7636A204698470CE000260C
S2140821202868F11B364B9847314B984720B9354BF2
S214082130984701E02E4B984702A82C4B984707462D
S214082140314EDFF8B09038E0059C1CB1616909B1E2
S214082150201DC047039902291FD003292AD0002929
S2140821602BD1049BA169204619443A46C847012842
S21408217023D1636A20469847E369012B1DD1A269DB
S2140821800023009320461946049C22441A4CA04774
S21408219098B91A4B984700BFFDE70499A16119B989
S2140821A0164B984700BFFDE7204639443A463B465B
S2140821B0C84702E02046154B9847286803A900221E
S2140821C01346B0470028BFD172E7074B984703A8C5
S2140821D0064B98470746039B002BA0D0AAE700BFEC
S2140821E064AC072034AC0720D5170800F11F080098
S2140821F025190800A91E08009D1F0800790D08006B
S214082200C1140800690D080065130800990F080036
S214082210F10C0800F0B583B004460D460023019380
S2140822201F4B984207D11F461E4E38462946B047D0
S2140822300028FAD119E01C4B984209D11F461B4EBC
S214082240384601A9B0470028FAD1019B2B7019E03F
S214082250174B984209D11E46144C304601A9A04790
S2140822600028FAD1019B2B7018E0124B9C4209D12A
S2140822701E460E4C304601A9A0470028FAD1019BFD
S2140822802B700BE00C4B9C4208D11E46074C304680
S21408229001A9A0470028FAD1019B2B7003B0F0BD16
S2140822A000080E40E9020800008009400104080002
S2140822B000C0094000000A4000400A4070B50C46BD
S2140822C0214B984207D11E46204D30462146A84746
S2140822D00028FAD12BE01E4B984207D11E461D4D0A
S2140822E030462146A8470028FAD122E01A4B9842E1
S2140822F007D11E46174D30462146A8470028FAD172
S21408230019E0164B984207D11E46124D3046214614
S214082310A8470028FAD110E0114B98420FD11E4664
S2140823200C4D30462146A8470028FAD109E001207E
S21408233070BD012070BD012070BD012070BD002059
S21408234070BD012070BD00BF00080E40D90208000D
S21408235000800940ED03080000C0094000000A405C
S21408236000400A402DE9F04186B00820204DA847D5
S214082370204C214B1C60214A214B1A60214A224BD3
S2140823801A60224E00964FF4E13301934FF400672B
S21408239002970820A847204669461D4B9847DFF84D
S2140823A08880D8F80030986800211A4CA047D8F8DA
S2140823B0003058680021A047174C2046A8474FF41D
S2140823C0165300930923019302970023039304935B
S2140823D01220A847204669463246104B98472046A2
S2140823E00F4B984720460F4B984706B0BDE8F0813C
S2140823F0010A080000080E40ACAC0720BD22080001
S214082400A8AC072015220800A4AC072000BD0105CB
S214082410A10208000527080000C009408903080033
S214082420DD030800E50308007805072010B582B02C
S2140824300E4B1A6842F010021A600D4C21784A1C9E
S214082440D2B2227098690B4B585401A80A499A5C74
S2140824500A4B98470A4801A90A4B984723780F2B36
S21408246001D90022227002B010BD00BF00C009408A
S2140824706CAC0720B0AC0720608A08001528080056
S214082480948A08005D25080000B585B0144B984767
S214082490144B9847144B98470024009401940294D0
S2140824A00394124812494FF480722346114DA847E8
S2140824B000940194029403940F4810494FF48072D4
S2140824C02346A84700940194029403940C480D49A7
S2140824D04FF480722346A8470B4B9847FEE700BF89
S2140824E05D050800C1050800652308008504080086
S2140824F0988A080065150800A9040800A48A080038
S214082500CD040800B08A08006D17080070B50F4E95
S2140825100F4D761BB61007D0043D0024013455F83D
S214082520043F9847A642F9D10A4E0B4D06F09AFB8F
S214082530761BB61008D0043D0024013455F8043F35
S2140825409847A642F9D170BD70BD00BF708C0800D0
S214082550708C0800788C0800708C08000FB410B5D2
S214082560074B82B004AC54F8042B186823468168DD
S214082570019401F083FC02B0BDE8104004B0704737
S21408258078050720844641EA000313F0030349D17F
S214082590403A23D30B6803604B6843608B688360BC
S2140825A0CB68C3600B6903614B6943618B698361C0
S2140825B0CB69C3610B6A03624B6A43628B6A8362A8
S2140825C0CB6AC3620B6B03634B6B43638B6B836390
S2140825D0CB6BC36340304031403ADBD230320BD34A
S2140825E00B6803604B6843608B688360CB68C36086
S2140825F010301031103AF3D20C3205D351F8043BA0
S21408260040F8043B043AF9D2043208D0D2071CBF7B
S21408261011F8013B00F8013B01D30B8803806046A4
S214082620704700BF082A13D38B07B1D010F00303F6
S214082630AED0C3F10403D21ADB071CBF11F8013B66
S21408264000F8013BA4D331F8023B20F8023B9FE791
S214082650043AD9D3013A11F8013B00F8013BF9D204
S2140826600B7803704B7843708B788370604670479E
S214082670F0B4840743D0541E002A3ED0CDB2034699
S21408268003E0621E002C38D0144603F8015B9A0754
S214082690F7D1032C2AD9CDB245EA05250F2C45EAF1
S2140826A0054515D9A4F110073F0903F1100606EBF6
S2140826B007161A46156055609560D5601032B24206
S2140826C0F8D104F00F040137032C03EB07130DD9D8
S2140826D01E462246043A032A46F8045BFAD8221F06
S2140826E022F003020432134404F003042CB1C9B2E6
S2140826F01C4403F8011BA342FBD1F0BC70471446E8
S2140827000346C6E700290CBF022200224FF4806366
S21408271000F000B82DE9F0413C4D04462D68884687
S21408272016461F4615B1AB6B002B4FD0022E30D87D
S214082730002F2EDB2846214603F0D6FAA38900226E
S2140827406260A2611A0628D423F083039BB2022E85
S214082750A3812DD0B8F1000F3CD0012E13D09BB228
S21408276003F008002A4A80B2EA63C4F80080C4F876
S2140827701080676178B113F0030F18BF0027A760B1
S2140827800020BDE8F08143F001037A42A381A261EC
S214082790E5E74FF0FF30BDE8F0812846216903F0F1
S2140827A003FCA389022E23F083039BB2A381D1D115
S2140827B0002004F1430243F0020300250121A3810F
S2140827C0A560226022616161BDE8F081284603F0B9
S2140827D0A7FAABE7002F08BF4FF48067384603F028
S2140827E0DDFE804628B1A38943F080039BB2A3810F
S2140827F0B3E74FF4806003F0D1FE804618B9A3898A
S2140828004FF0FF30D5E74FF48067ECE778050720F0
S214082810155D08000EB4F0B59CB021AC54F8042B36
S2140828200E49064623464FF4027E6FF000450868B8
S2140828304FF6FF7702A9029606960194ADF814E0C3
S21408284004950795ADF8167000F06CF8029B002208
S2140828501A701CB0BDE8F04003B070477805072032
S21408286020F0030110F00300C0F1000051F8043B0B
S21408287000F1040C4FEACC0C6FF000021CBF22FAE1
S2140828800CF213434FF0010C4CEA0C2C4CEA0C4C9F
S214082890A3EB0C0222EA030212EACC1204BF51F898
S2140828A0043B0430F4D013F0FF0F1FBF013013F4BD
S2140828B07F4F013013F47F0F18BF0130704700BFF9
S2140828C040EA01039B0770B42AD1032A28D90C468C
S2140828D00346214654F8045BA5F1013626EA0506A8
S2140828E016F0803F05D1043A032A43F8045B2146D4
S2140828F0EFD89AB10C78013A1C7001333CB16AB132
S21408290011F8014F013A03F8014B002CF7D12AB110
S2140829101A44002103F8011B9342FBD170BC704790
S2140829200346E6E72DE9F04FC9B010930C9191469F
S2140829300D9003F0BFFD00681590FFF791FF0C9C03
S2140829401890A3891E0603D52369002B01F0818001
S21408295038ACA44608942B9400250024CDE91645E7
S214082960002311932D932C931A9319930E9366466E
S21408297099F80030002B00F0F880252B00F0F58041
S21408298009F1010201E0252B04D013781446013220
S214082990002BF8D1C9EB04057DB12C9B2D9A013389
S2140829A02A44072BC6F8009075602D922C9300F3E6
S2140829B0C28008360E9828440E902378002B00F024
S2140829C0C280002394F801801A468DF88F300F9342
S2140829D0099304F101094FF0FF340A9409F101093B
S2140829E0A8F12003582B00F2C583DFE813F06A022B
S2140829F0C303C3037102C303C303C303C303C303ED
S214082A00C30314036603C3039D00C000C303780210
S214082A107F027F027F027F027F027F027F027F02A1
S214082A207F02C303C303C303C303C303C303C303AE
S214082A30C303C303C30390027103C3037103C30331
S214082A40C303C303C3036A03C303C3037800C303F0
S214082A50C303C303C303C3035900C303C303AF02BB
S214082A60C303C303C303C303C303C303C303C30329
S214082A70C303C30337034803710371037103FF02DB
S214082A804803C303C3030803C303C5027C0020032B
S214082A90A303C303D902C3035F00C303C303DE0053
S214082AA0DDF824C04CF0100CCDF824C0099CA20612
S214082AB000F15483099CE30600F1BD85DDF824C0C7
S214082AC01CF0400F00F0B785DDF840C00025BCF8C4
S214082AD000400CF1040C0123CDF840C08CE0099DA1
S214082AE045F010050995DDF824C01CF0200340F0D9
S214082AF02A83DDF824C01CF0100240F0A485DDF817
S214082B0024C01CF0400300F09E85DDF840C0134644
S214082B10BCF800400CF1040C0025CDF840C06BE072
S214082B200F9C109364420F94099D45F0040509957F
S214082B3099F8008052E70D980C992BAA04F0ECFD42
S214082B4040B938AE36E72D9B23B10D980C992BAAC1
S214082B5004F0E2FD0C9C0E98A38913F0400F18BFF2
S214082B604FF0FF3049B0BDE8F08F4C4625E799F89E
S214082B70008009F10100B8F12A0F01F00C81A8F1D4
S214082B803003092B98BF002101F26B8010F8018BE7
S214082B9001EB810103EB4101A8F13003092BF5D9BC
S214082BA041EAE1710A9181461AE7099DA14CAF06F0
S214082BB01A948DF88F2040F1D181DDF840C00CF1D1
S214082BC0070323F0070303F108041094D3E900452C
S214082BD0DDF824C01CF0010F00F0628454EA0500FA
S214082BE000F05E8430234CF0020C8DF890308DF89F
S214082BF09180CDF824C002234FF0000A8DF88FA0EC
S214082C000A99002905DBDDF824C02CF0800CCDF8E5
S214082C1024C054EA050040F0C5820A99002940F00D
S214082C20C182002B40F03884DDF824C01CF0010F68
S214082C3000F0328448AF3023089D07F8413DEC1B6E
S214082C40DDF828C000256445A8BFA446CDF82CC0EA
S214082C501495BAF1000F02D00B9D01350B95099B10
S214082C6013F00203129302D00B9D02350B95DDF884
S214082C7024C01CF0840CCDF84CC040F090820F9D08
S214082C80DDF82CC0CCEB050BBBF1000F40F38782B8
S214082C90BBF1100F2D992C9ADFF8A0A12CDD1B97FD
S214082CA0304657461025CA460C9EA1460D9C06E09F
S214082CB0ABF1100BBBF1100F00F1080017DD013265
S214082CC01031072A2D912C9207604560F0DD2046CA
S214082CD031462BAA04F020FD00287FF43BAFABF169
S214082CE0100BBBF1100F2D992C9A38A8E7DC4C4630
S214082CF0D146BA461B9F064601320BEB010C072A43
S214082D00CDF8B4C02C9286E8000C00F31A849DF81F
S214082D108FA00836BAF1000F0FD02C9B0CF1010CCF
S214082D2001330DF18F010122072BCDF8B4C02C9387
S214082D3086E8060000F3A4830836129B73B12C9B22
S214082D400CF1020C013324A90222072BCDF8B4C0DB
S214082D502C9386E8060000F387830836139D802D9B
S214082D6000F0CA820A9DC4EB050ABAF1000F3BDDE3
S214082D70BAF1100F2C9B304D2BDD0A9432464FF0DB
S214082D80100B2E4661460D9C0C9D06E0AAF1100A13
S214082D90BAF1100F02F1080217DD01331031072BC4
S214082DA02D912C9382E84008F0DD204629462BAA70
S214082DB004F0B2FC00287FF4CDAEAAF1100ABAF1EE
S214082DC0100F2D992C9B38AAE7DC0A9C35468C46B2
S214082DD016460133D444072BCDF8B4C02C9386E8A6
S214082DE0200400F335830836099DED0500F124829A
S214082DF02C9BA4440133072BCDF8B4C0376074600D
S214082E002C9300F30F830836099C630749D50F9D5A
S214082E100B982C1A002C44DD102C2C9BDFF81CA0D9
S214082E202BDD574610256246DDF83080DDF834A0E5
S214082E300BE000BFF88A0800C48A0800188B080050
S214082E40103C102C06F1080615DD01331032072B4E
S214082E502D922C9337607560F2DD504641462BAABA
S214082E6004F05AFC00287FF475AE103C102C2D9AFE
S214082E702C9B38AEE9DC9446BA460133A444072BAB
S214082E80CDF8B4C02C93C6F800A0746009DD0D9880
S214082E900C992BAA04F040FC00287FF45BAEDDF802
S214082EA0B4C00E9C0B980F9DA842ACBF241864199A
S214082EB00E94BCF1000F40F0C18200232C9338AE6C
S214082EC056E599F80080002A7FF488AD202285E52B
S214082ED0099D45F00105099599F800807EE5099D4C
S214082EE045F08005099599F8008077E50024A8F153
S214082EF030030F94214619F8018B01EB810103EB8F
S214082F004101A8F13003092BF5D90F9168E5DDF8E2
S214082F1024C08DF88F204CF0100CCDF824C0099CE6
S214082F20A50640F1B280109DE91D21F00701D1E900
S214082F3000230831109114461D46002A73F1000C30
S214082F40C0F294839DF88FA0012359E6099DB64CDC
S214082F50AF068DF88F201A943FF52FAE099DED0623
S214082F6040F14384DDF840C00025DCF800400CF151
S214082F70040CCDF840C02BE6DDF824C08DF88F2071
S214082F801CF0200F00F04084109C21680E9CE5176A
S214082F902B46109D224604351095C1E90023E7E428
S214082FA0109C4FF0000A27688DF88FA0251D002F6B
S214082FB000F0E9850A9C3846002CC0F29B855146ED
S214082FC0224603F08FFD002800F013860A9CC01BDB
S214082FD0A042B8BF0446109524EAE475CDF828A0A8
S214082FE0CDF850A00B959DF88FA032E6DDF824C0EA
S214082FF04CF0400CCDF824C099F80080EEE499F81F
S21408300000804B46B8F16C0F00F07F84099D45F0B0
S21408301010050995E2E4109C109D24682B1D002CD1
S2140830200F94FFF67DAD109399F80080D6E4109BB8
S214083030DDF824C0109D7D4804351C684FF07808DC
S21408304030234CF0020C10958DF89030CDF824C043
S21408305000258DF891801A900223CDE5109B109DCF
S2140830601A680124002304359A460B948DF8B82074
S21408307010958DF88F300A9314932EAFEFE5099CC0
S2140830808DF88F20A5063FF54EAFDDF824C01CF05E
S214083090100F40F0DF82DDF824C01CF0400F00F06F
S2140830A0D982DDF840C0BCF900400CF1040CE517E5
S2140830B022462B46CDF840C03FE799F800802B22E1
S2140830C08CE4099D45F00805099599F8008085E483
S2140830D0109D8DF88F20EB1D23F0070303F1080CD5
S2140830E0CDF840C0D3E90045CDE91645DDE916011F
S2140830F004F096FA0128DDE9160140F05C83002208
S214083100002305F07DF9002840F063859DF88FA020
S21408311003250B95099D464F25F08005454B002451
S214083120099500250A94B8F1470FD8BF1F4603240F
S21408313014958EE5DDF824C04CF0200CCDF824C09C
S21408314099F800804AE4109CE31D23F0070303F176
S21408315008051095D3E9004500234DE5109DEB1DA5
S21408316023F0070303F1080CD3E90045CDF840C067
S214083170012341E58DF88F20B8F1000F3FF4E3AC4A
S21408318000234FF0010C9A46CDF82CC08DF8B88075
S2140831908DF88F300A93149364462EAF5FE5DDF8FA
S2140831A0B4C0B7E5012B00F0EC80022B0DF1DF036D
S2140831B018D1DDF868C0194604F00F0022091CF87B
S2140831C0000042EA05722B09087052EA03000F460F
S2140831D014461D4601F1FF31EED1089DCDE91E23A8
S2140831E0EC1B2DE5E00840EA457004F00702E90804
S2140831F0303250EA010C1F461A7004460D4603F199
S214083200FF33EFD1099CCDE91C01E007394640F1B0
S214083210C180302A00F0BE80089D1F463023EC1B74
S21408322001F8013C0CE500BFE48A0800F88A0800AB
S214083230D88A0800D48A0800B8F1650F40F3AD8034
S214083240DDE9160100220023CDF81CC005F0CEF8F3
S214083250DDF81CC0002800F026812C9BAA49013303
S2140832600CF1010C0122072BCDF8B4C02C9386E88C
S214083270060000F3ED820836259B119CA34203DB6B
S214083280099DEC077FF5C0AD2C9B189C0133159D56
S214083290A444072BCDF8B4C0356074602C9300F3B3
S2140832A03E830836119D6C1E002C7FF7ADAD102CA2
S2140832B02C9B964D40F3978110276246DDF83480A4
S2140832C0DDF830A004E00836103C102C40F38A8164
S2140832D001331032072B2D922C9386E8A000F2DDDE
S2140832E0404651462BAA04F017FA00287FF432AC61
S2140832F02D9A2C9B38AEE7E70F9D0B98C0EB050A76
S214083300BAF1000F7FF72EADBAF1100F2C9B7F4D48
S2140833102BDD129432464FF0100B2E4661460D9C5C
S2140833200C9D06E0AAF1100ABAF1100F02F1080285
S21408333017DD01331031072B2D912C9382E84008B6
S214083340F0DD204629462BAA04F0E6F900287FF48B
S21408335001ACAAF1100ABAF1100F2D992C9B38AAC5
S214083360E7DC129C35468C4616460133D444072BB8
S214083370CDF8B4C02C9386E8200400F30F820836F4
S214083380F0E4002D08BF0A2C80F03881303448AFAE
S21408339007F8414D089DEC1B52E4119C012C2C9C0F
S2140833A040F3D28101340CF101030122072C2D933E
S2140833B037602C94726000F3D8810836159DDDF8C6
S2140833C0608001343560189D9844072CCDF8B48089
S2140833D02C94756000F3D5810836DDE916010022C5
S2140833E0002305F003F8119D002840F0B9806B1EF5
S2140833F0013401379844072C2C94CDF8B4803760F4
S214083400736000F3E2800836DDF864C00134199D65
S214083410C44427AB072CCDF8B4C02C9486E8280003
S2140834207FF7F1AC0D980C992BAA04F075F90028D3
S2140834307FF490ABDDF8B4C038AEE5E40D980C998F
S2140834402BAA04F069F900283FF437ADFFF782BBD2
S2140834500D980C992BAA04F05FF900287FF47AAB34
S214083460DDF8B4C038AEBFE40D980C992BAA04F06A
S21408347053F900287FF46EABDDF8B4C038AE6DE4BF
S2140834800D980C992BAA04F047F900287FF462AB34
S214083490DDF8B4C038AE50E40A9C38AFFFF7D0BBAE
S2140834A00223FFF7A9BB259B002B40F3DD81119C67
S2140834B0149DDDF844A0AC42A8BF2C46002CBA44A4
S2140834C00BDD2C9BA4440133072BCDF8B4C0376022
S2140834D074602C9300F31E830836149D24EAE47463
S2140834E02C1B002C40F3D780102C2C9B074D40F348
S2140834F0A3810A974FF010082F4662462546DDF846
S21408350034B00C9C09E000BF148B0800C48A08007D
S2140835100836103D102D40F38B8101331032072BEF
S2140835202D922C9386E88001F2DD584621462BAA78
S21408353004F0F2F800287FF40DAB2D9A2C9B38AED9
S214083540E7E70D980C992BAA04F0E6F800287FF414
S21408355001AB9DF88FA0DDF8B4C038AEFFF7DABB34
S2140835606F1E002F7FF750AF102FAE4D23DD43465A
S2140835704FF0100ADDF83480DDF830B004E0103F74
S214083580102F06F1080615DD01341033072C2D938D
S2140835902C9486E82004F2DD404659462BAA04F00F
S2140835A0BBF800287FF4D6AA103F102F2D9B2C9C22
S2140835B038AEE9DC98460134B844072CCDF8B48018
S2140835C02C9486E8A0007FF71EAF0D980C992BAABE
S2140835D004F0A2F800287FF4BDAADDF8B4802C9C7D
S2140835E038AE11E794460133A444072BCDF8B4C08F
S2140835F02C93356074607FF706AC13E70DF1DF0B8C
S214083600204629460A22002304F04AFF30328BF867
S2140836100020204629460A22002304F041FF0446DB
S2140836200D4654EA050C5F460BF1FF3BE8D1089DB2
S214083630EC1BFFF705BB109D01232C68043510957D
S2140836400025FFF7D9BA109D2C680435109500257B
S214083650FFF7D2BA109D2C6804351095E517224658
S2140836602B46002A73F1000CBFF66CAC4FF02D0AFF
S214083670644265EB45058DF88FA00123FFF7C0BAB5
S2140836800D980C992BAA04F047F800287FF462AA34
S214083690DDF8B4C038AE149D259C2F44119DAC426D
S2140836A042DB099DE9073FD41198C7EB0A05041BBE
S2140836B0AC42B8BF2546002D0BDD2C9BAC4401332D
S2140836C0072BCDF8B4C0376075602C9300F34C8296
S2140836D0083625EAE575641B002C7FF795AB102C99
S2140836E02C9B504D7FF77FAF10276246DDF834805D
S2140836F0DDF830A004E00836103C102C7FF772AFD7
S21408370001331032072B2D922C9386E8A000F2DDA9
S214083710404651462BAA03F0FFFF00287FF41AAA5A
S2140837202D9A2C9B38AEE7E7189D2C9BAC44159D2C
S21408373001333560189D072BCDF8B4C075602C93FF
S21408374000F3F4810836AFE7099DEA073FF52AAE8D
S21408375001340CF101080123072CCDF8B4802C9411
S214083760376073607FF74FAE2FE70D980C992BAA3A
S21408377003F0D2FF00287FF4EDA92D9B2C9C38AED1
S2140837801CE60D980C992BAA03F0C6FF00287FF4B8
S214083790E1A9DDF8B4802C9C38AE1EE60D980C998D
S2140837A02BAA03F0B9FF00287FF4D4A9DDF8B4C02B
S2140837B038AEFFF7D7BA03F033FF002840F0BB80D7
S2140837C0099C194F194B4FF0030C24F080040994F8
S2140837D00A90CDF82CC01490B8F1470FD8BF1F46F2
S2140837E064469DF88FA0FFF734BA099C640640F13A
S2140837F05081DDF840C00025BCF800400CF1040CF0
S214083800CDF840C0FFF7E4B9DDF824C01CF0100F6F
S21408381000F04681109C0E9D2368043410941D60A9
S214083820FFF7A6B8C48A0800E08A0800DC8A080001
S2140838302C463D460A9F94460133A444072BCDF8F0
S214083840B4C02C93356074603FF71AAF083622E789
S2140838500D980C992BAA03F05FFF00287FF47AA92D
S214083860DDF8B4C038AE07E52C9AB74901320CF13A
S214083870010C0120072ACDF8B4C02C923160706084
S21408388000F3F78008361C462CB9119D1DB9099D12
S214083890E8077FF5B9AA2C9B159D18990133356062
S2140838A0189D6144072B2D9175602C9300F3DE81DB
S2140838B006F108026442002C40F30B81102CA34D3D
S2140838C040F34881A34610260C46DDF83480DDF820
S2140838D030A006E00832ABF1100BBBF1100F40F336
S2140838E0378101331034072B2D942C9382E860001F
S2140838F0F0DD404651462BAA03F00EFF00287FF461
S21408390029A92D9C2C9B38AAE5E7099C09F10109F1
S21408391044F02004099493F80180FFF75FB80D98E7
S2140839200C992BAA03F0F8FE00287FF413A9DDF8FB
S214083930B4C038AEB6E40A9D28F0200A013500F077
S214083940A580BAF1470F04D10A9D002D08BF0125AE
S2140839500A95DDF824C0DDE916234CF4807C002B9C
S214083960CDF848C0C0F29C81DDE91645CDE9204572
S2140839704FF0000BB8F1660F00F09B81B8F1460FC8
S21408398000F0A981BAF1450F0ABF0A9C0A9D651C7A
S214083990022025A926AA29AB8DE8210003920493C4
S2140839A002910D98DDE9202301F0DEF9B8F1670FE2
S2140839B0074602D0B8F1470F05D1DDF824C01CF041
S2140839C0010F00F09C81BAF1460F07EB050400F0E2
S2140839D01C81DDE920010022002304F007FD0028F1
S2140839E040F00581299B9C4206D930215A1C299211
S2140839F01970299B9C42F9D8DB1BBAF1470F119323
S214083A0000F0ED80B8F1650F40F3F281B8F1660F6B
S214083A1000F06881259C1494119C149DAC4200F318
S214083A203281DDF824C01CF0010F40F0AD8125EA94
S214083A30E5732C464FF06708BBF1000F40F0B280E4
S214083A40129D0B930995CDF828B09DF88FA0FFF727
S214083A5000B90D98402102F0A9FD206020610028D9
S214083A6000F0BF81DDF830C04023CCF81430FEF7F4
S214083A706FBF0D980C992BAA03F04EFE00287FF412
S214083A8069A8259CDDF8B4C038AEFDE606240A947D
S214083A905FE7109D2C68043510950025FFF798B849
S214083AA0DDF824C01CF0400F00F08780109C0E9DA7
S214083AB02368043410941D80FEF75ABF0D980C999D
S214083AC02BAA03F029FE00287FF444A82D992C9BE6
S214083AD038AADDF844C00133119C8C44072BCDF876
S214083AE0B4C02C93176054603FF79CAC02F10806EC
S214083AF0FFF78AB9CDF828A0FEF7B2FE10950A9D02
S214083B0020EAE07C0446CDF82CC014959DF88FA0DA
S214083B10FFF79FB80D980C992BAA03F0FDFD002817
S214083B207FF418A8DDF8B4C038AED6E40D980C9922
S214083B302BAA03F0F1FD00287FF40CA8259CDDF8DD
S214083B40B4C038AEB0E500BF148B0800C48A0800BD
S214083B5021465C4601332144072B2D912C93156092
S214083B605460ABDC0832B4E70D980C992BAA03F026
S214083B70D3FD00287EF4EEAF259C1199DDF8B4C07D
S214083B800C1B38AEA5E50A9CBA46062C28BF0624A8
S214083B9024EAE47C0A9714971095CDF82CC0974F22
S214083BA0FFF757B8129D4FF02D0A099500250B937D
S214083BB08DF88FA00A95FFF74FB8DDF840C00E9C29
S214083BC0DCF800300CF1040CCDF840C01C60FEF7A1
S214083BD0CFBE4FF02D0A8DF88FA0FFF799BA259B18
S214083BE0DC1C19DB0A9C9C4216DB149314E723465C
S214083BF002E724EAE47CCDF82CC00A9C10950A90CB
S214083C0014909DF88FA0FFF724B83B78302B00F06F
S214083C10AD80259D2C44DCE6A8F10208591E002933
S214083C202591BABF49422D232B2309298DF89C805C
S214083C308DF89D3065DC302330318DF89E308DF858
S214083C409F1028AB119D27AA119C9A1A012D19922C
S214083C50144440F3B7800134002524EAE47314952D
S214083C60EAE6002481460A94FEF7BABE0D980C9937
S214083C702BAA03F051FD00287EF46CAF259C2D99E5
S214083C802C9B38AA16E6149C119D002CD4BFC4F1B0
S214083C90020401242C4424EAE4734FF06708CBE6B8
S214083CA01799169801F10041209021914FF02D0B9D
S214083CB060E60A9D032025A926AA29AB019500904F
S214083CC00392049302910D98DDE9202301F04CF845
S214083CD00A9D074677E60A9C032025A926AA29AB4B
S214083CE00194ECE7259D0A9C002D149563DDB4BB72
S214083CF0099DE80733D4149C24EAE4739CE6299BC0
S214083D007AE60DF1AA023E4DCB1785FB0150C3EBB0
S214083D10A00000EB8003A1EB43010928134601F13C
S214083D2030021A70014603F1FF32ECDC00F1300174
S214083D300DF1AB04C9B2944203F8011C5AD90DF12F
S214083D409D001A4601E012F8011BA24200F8011F66
S214083D50F9D10DF5907CC3EB4C03F63B72E70A9D50
S214083D606C1C149D2C4424EAE47365E6DDE9200106
S214083D700022002304F03AFB00287FF44AAFC5F17E
S214083D80010525952C4424E6149D4FF067086C1C05
S214083D9024EAE47350E6109DDDF840C02D680CF167
S214083DA00403002D99F801800A9510938146BEF603
S214083DB015AEFEF710BE7CB9099DE9070CD40123A1
S214083DC01C4639E6DDF824C01CF001037FF443AF37
S214083DD0149324EAE4732FE60A9DAC1C24EAE473E1
S214083DE02AE60D9D0C232B604FF0FF30FEF7BABE77
S214083DF0259B13E70DF19E0324E700BF0C8B0800F4
S214083E00676666664B6E2DE9F0479C040E4680464C
S214083E1091462AD59368126802F1080A1BB31AE974
S214083E20A000BF0817D0043D002401E0A74210D028
S214083E30404655F8041F324602F008F8431C04F1C1
S214083E400104F3D10023C9F80830C9F80430BDE8E6
S214083E50F087D9F80830A3EB8703C9F808300AF1C9
S214083E60080A002BDBD10020ECE702F069F90023F2
S214083E70C9F80830C9F80430BDE8F0872DE9F04FD6
S214083E80B1B01C46029190460893069018B1836B11
S214083E90002B00F0E880029DAB899AB2900407D404
S214083EA06A6E43F4005322F40051AB819AB26966F5
S214083EB0110740F1B780DDF808B0DBF81030002BAA
S214083EC000F0B08002F01A020A2A00F0B780002339
S214083ED00DF180090A93159314930993CDF84C9025
S214083EE04E4698F80030002B00F0C884252B00F0CA
S214083EF0C58408F1010201E0252B04D01378144686
S214083F000132002BF8D1C8EB040595B1149B159A1D
S214083F1001332A44072BC6F800807560159214935F
S214083F207BDD002A40F0D5840998149228444E4632
S214083F3009902378002B00F0ED8300214FF0000253
S214083F404FF0FF3C63788DF8472004918A4604F1C9
S214083F5001080846654608F10108A3F12002582A18
S214083F6000F2D982DFE812F0CB02D702D702D202DB
S214083F70D702D702D702D702D702D70282028F0209
S214083F80D70284009302D7022B0196019601960168
S214083F90960196019601960196019601D702D702D8
S214083FA0D702D702D702D702D702D702D702D7023C
S214083FB03001D702D702D702D702D702D702D702D4
S214083FC0D702D702D7027B01D702D702D702D70279
S214083FD0D702A401D702D702BF01D702D702D70259
S214083FE0D702D702D702D702D702D702D702E401F0
S214083FF0FA01D702D702D7021602FA01D702D70269
S2140840001B02D7022802890066027D02D7023A02FE
S214084010D7021901D702D702AF02083609982844F2
S214084020099086E70698029900F090FDB0B9029DBF
S214084030AA8902F01A020A2A7FF449AFDDF808B006
S214084040BBF90E30002BFFF642AF0698594642469B
S214084050234600F03DFD31B0BDE8F08F4FF0FF304D
S21408406031B0BDE8F08F01F05BFE14E740420893DC
S2140840704AF0040A98F800306DE71AF02003049016
S214084080AC4600F0F480DDF820B00BF1070323F00F
S214084090070303F108040894D3E9004500234FF00A
S2140840A0000000218DF84700CDF814C00791BCF138
S2140840B0000FA8BF2AF0800A54EA050240F0AD8037
S2140840C0BCF1000F40F0A980002B40F0C0831AF026
S2140840D0010F00F0BC83302330AF07F8413DC7EB33
S2140840E009040594DDF814B0079CE345B8BFE34619
S2140840F0CDF80CB01CB10BF1010BCDF80CB01AF0D2
S2140841000205079505D0DDF80CB00BF1020BCDF8CB
S2140841100CB01AF084030B9340F01B82049DDDF864
S2140841200CB0CBEB0504002C40F31382102C40F3A4
S2140841308984BE4D159A2B46149825464FF0100BC9
S2140841406446B4461E4606E0831C0CF1080C084676
S214084150103D102D11DD411C1032072915928CE8F0
S21408416040081491F0DD002A40F0E681103D102D3D
S2140841704FF001031046CC46EDDC31466646A446B1
S2140841802C460D462244072B15923560746014930E
S21408419000F36D830836591CDEE11AF0200F0490F0
S2140841A0AC4600F08D80089DEB1D23F0070303F155
S2140841B0080BD3E90045CDF820B001236FE74AF095
S2140841C0800A98F80030C6E64AF0100A1AF0200F5F
S2140841D00490AC468DF8471000F0C880089CE11D96
S2140841E021F00701D1E900230831089114461D463D
S2140841F0002A73F1000BC0F2CE83BCF1000F9DF8C5
S2140842004700A8BF2AF0800A54EA05020790CDF8AE
S21408421014C04FF001033FF453AF012B00F019838D
S214084220022B0DF17F0340F04C82DDF828B01946CA
S21408423004F00F0022091BF8000042EA05722B0959
S214084240087052EA03000F4614461D4601F1FF3176
S214084250EED1CDE90E23C7EB0903059342E74AF0F2
S214084260100A1AF020030490AC467FF40CAF1AF03C
S214084270100240F011831AF0400300F00D83DDF8B9
S21408428020B01346BBF800400BF1040B0025CDF810
S21408429020B004E7A3F13002002018F8013B00EB39
S2140842A0800002EB4000A3F13002092AF5D954E653
S2140842B04AF0100A1AF0200F0490AC467FF473AF49
S2140842C01AF0100F40F0EF821AF0400F00F0EB8261
S2140842D0DDF820B00025BBF800400BF1040B0123E5
S2140842E0CDF820B0DBE6AC46514D1AF0200F04900E
S2140842F08DF847100A9500F0F080089DEA1D22F018
S214084300070202F1080BCDF820B0D2E900451AF0F2
S214084310010F00F0AA8254EA050B00F0A6823022AC
S2140843208DF849304AF0020A8DF848200223B6E68E
S214084330089BDDF820B01B6801244FF000050BF140
S214084340040B049003948DF847508DF85830CDF838
S21408435020B0059416AF4FF0000CD0E61AF0200FE8
S2140843600490AC468DF847107FF438AF1AF0100F5B
S21408437040F0A7821AF0400F00F0A382DDF820B0C4
S214084380BBF900400BF1040BE51722462B46CDF887
S21408439020B02DE74AF0400A98F80030DBE598F898
S2140843A0003042466C2B03BF08F101084AF0200A89
S2140843B053784AF0100ACEE51AF0200F8DF8471009
S2140843C000F0F782089C2168099CE5172B46089D93
S2140843D0224604350895C1E9002382E5089CAC46C8
S2140843E027684FF0000504908DF847500434002FD6
S2140843F000F03283BCF1000F3846C0F207836246ED
S2140844000021CDF804C002F06DFBDDF804C00028DA
S21408441000F03A83C01B9DF847506045A8BF604629
S2140844200590089407954FF0000C5BE6388B08005B
S214084430E48A0800089BDDF820B00490B2481C689F
S214084440302278230BF1040BAC468DF849304AF03D
S214084450020ACDF820B000258DF848200A900223DD
S2140844601DE64AF0200A98F8003074E5DDF820B01A
S214084470DBF800000BF104030028FFF6F7AD0893FD
S21408448098F8003067E598F800302B2163E598F82F
S214084490003008F101042A2B00F00583A3F130024E
S2140844A0092A98BF002500F2FA8214F8013B05EBAA
S2140844B0850502EB4505A3F13002092AF5D945EA38
S2140844C0E575A04649E5904C1AF0200F0490AC46D6
S2140844D00A948DF847107FF410AF1AF0100F40F0CA
S2140844E0EA811AF0400F00F0E681DDF820B00025DA
S2140844F0BBF800400BF1040BCDF820B007E798F89E
S214084500003000297FF427AD202124E54AF0010A6F
S21408451098F800301FE504908DF84710002B00F03F
S214084520F98001254FF0000B03958DF858308DF86B
S21408453047B0059516AF0EE70698029913AAFFF737
S21408454061FC002840F0ED801498159A431CCC4670
S214084550FEE5149B159A591C9DF8470068B1013270
S2140845600DF14700012307291592149186E80900E2
S21408457000F360810B4608360131079C64B10232AD
S21408458012A8022307291592149186E8090000F359
S21408459057810B46083601310B9D802D00F00181AE
S2140845A0059DC5EB0C04002C2FDD102C574D22DD85
S2140845B030464FF0100B2E462546069C06E003F1C3
S2140845C0020C08300B46103D102D10DD591C103219
S2140845D00729159280E840081491F0DD002A63D177
S2140845E0103D102D4FF0010C13464846EEDC2C46C5
S2140845F0614635460646224407291592356074609A
S214084600149100F3C18008360131059D07292A4414
S214084610159237607560149140F3C180002A40F007
S214084620308114924E461AF0040F00F08B80049DD9
S214084630DDF80CB0CBEB0504002C40F38380102C7F
S21408464040F31E821499324D1027DDF818A0DDF8C5
S21408465008B005E0881C08361946103C102C10DDFA
S2140846604B1C1032072B159286E8A0001493F1DD38
S214084670002A7DD1103C102C4FF0010011464E4602
S214084680EEDC22440728159235607460149059DDD4
S214084690002A4FD1099CDDF80CB0049DAB45ACBF91
S2140846A05C44641909945EE02046029913AAFFF751
S2140846B0A9FB002835D1149B159A03F1010C48462E
S2140846C081E7E00840EA457004F00702E90830325E
S2140846D050EA010B1F461A7004460D4603F1FF33D5
S2140846E0EFD11AF0010FCDE90C01394600F0B98078
S2140846F0302A3FF4F4AC1F46C7EB0905302305956E
S21408470001F8013CEEE400BFF88A0800288B080090
S214084710388B0800159B23B10698029913AAFFF751
S21408472071FB029CA3895B063FF598AC099831B0EB
S214084730BDE8F08F0698029913AAFFF763FB0028D6
S214084740EFD1159A099CDDF80CB0049DAB45ACBFBB
S2140847505C446419099432B10698029913AAFFF7C3
S21408476051FB0028DDD1002014904E46FFF7B9BB58
S2140847705046594613AAFFF745FB0028D1D114998D
S214084780159A481C4E4668E7002A40F0F780059CB4
S2140847900123209721941594224614934E460836F2
S2140847A041E7049DDDF80CB0CBEB0504002C7FF741
S2140847B0F7AE102CA64D40F3708129464FF0100B2B
S2140847C025466446B4460E4606E0981C0CF1080CCE
S2140847D00B46103D102D0FDD591C10320729159277
S2140847E08CE840081491F0DDBAB9103D102D4FF052
S2140847F001001346CC46EFDC33466646A4462C46F4
S2140848001D4622440728159235607460149000F3FC
S214084810AF800836411C0346C2E60698029913AADA
S214084820FFF7F0FA00287FF47CAF149B159A581C03
S214084830CC46CEE7002A79D119464E4613469CE662
S214084840002A40F08480012113464E46A4E64F46CF
S21408485048E4002D08BF0A2C46D2303430AF07F89B
S214084860414DC7EB090305933CE4022317E4002AED
S21408487040F0AF80134601214E466DE64446FFF7EA
S21408488058BB0698029913AAFFF7BCFA00287FF4CB
S21408489048AF159A4E46C6E6089D2C680435089516
S2140848A00025FFF7FCBB089D01232C6804350895F6
S2140848B00025FFF7F4BB089D2C68043508950025ED
S2140848C025E5089D2C6804350895E51722462B46ED
S2140848D08EE40698029913AAFFF794FA00287FF444
S2140848E020AF4E46FFF79ABB0DF17F0B03965E4648
S2140848F0E346204629460A22002303F0D1FD30323B
S2140849003270204629460A22002303F0C9FD0446D1
S2140849100D4654EA0500374606F1FF36E9D1C7EBDF
S2140849200903DC46039E0593FFF7DCBB069802994D
S21408493013AACDF804C0FFF765FADDF804C000280E
S2140849407FF4EFAE149B159A591C4E4615E606984A
S214084950029913AACDF804C0FFF754FADDF804C08C
S21408496000287FF4DEAE149B159A591C4E4613E6B3
S214084970002A56D1012113464E4611E6069802999A
S21408498013AAFFF73FFA00287FF4CBAE1499159ABE
S21408499001314E4639E64FF02D0B644265EB45056E
S2140849A08DF847B0CDF81CB0CDF814C00123FFF73A
S2140849B07EBB1AF0100F1DD11AF0400F58D0089D74
S2140849C0DDF824B02B6804350895A3F800B0FFF787
S2140849D088BA0698029913AACDF804C0FFF712FA07
S2140849E0DDF804C000287FF49CAE149B159A591C69
S2140849F04E46B1E5DDF820B0099CDBF800300BF137
S214084A00040BCDF820B01C60FFF76BBA0894FDF7CE
S214084A1027FF9DF84740059007944FF0000CFFF7D6
S214084A2061BB0698029913AACDF804C0FFF7EAF905
S214084A30DDF804C000287FF474AE149B159A591C40
S214084A404E46ADE5149B159A0133024DFFF79ABB07
S214084A50288B0800388B0800BCF1060F34BF634665
S214084A600623089423EAE37405930394164F72E426
S214084A70089C099D2368043408941D60FFF731BA22
S214084A801498124D0130FCE59DF84750CDF814C037
S214084A90079508948446FFF725BB0846B1E6A04666
S214084AA00025FFF75ABADDF820B098F80130DBF891
S214084AB000500BF10402002D0892A046BFF64BAA40
S214084AC04FF0FF35FFF747BA0C8B0800388B080005
S214084AD02DE9F0474F6EADF58D6D88461997D8F8D5
S214084AE01C70B1F80CA0B1F80E900797D8F824708F
S214084AF01AAC4FF480652AF0020A0026694600942C
S214084B00049402950595ADF80CA0ADF80E9009979B
S214084B1006960546FFF7B2F9041E07DB28466946DF
S214084B2001F0E2F8B04218BF4FF0FF34BDF80C3081
S214084B305B0605D5B8F80C3043F04003A8F80C30EF
S214084B4020460DF58D6DBDE8F08700BF2F4B70B57C
S214084B50064618680C4610B1826B002A36D0A5891E
S214084B60ABB219070CD52269AAB113F001011ED001
S214084B70636900215B42A361A160F2B1002070BDA9
S214084B80DA063AD55B0724D4226945F00803A381E0
S214084B909BB2002AE9D103F42071B1F5007FE4D076
S214084BA03046214601F08AFCA3892269DDE798078A
S214084BB058BF6169A160002AE0D1A3891A06DDD52D
S214084BC043F04003A3814FF0FF3070BD01F0A8F812
S214084BD0C5E7216B49B104F14003994203D030463A
S214084BE001F0E2F9A58900232363226925F024054C
S214084BF00021ADB222606160C7E745F04005092391
S214084C0033604FF0FF30A58170BD00BF78050720E0
S214084C10024B13B1024800F005B8704700000000C8
S214084C201D5E0800014600200246034602F092BEBA
S214084C302DE9F04F03690D6983B09D42834600F362
S214084C408C80013D01F1140400F1140A54F8252063
S214084C505AF825300132B3FBF2F8AA0091460092C2
S214084C605244A1440192B8F1000F3ED000263046C7
S214084C70224653468C4652F8047B19681FFA87FE6C
S214084C803F0C0EFB086E07FB08F606EB1E461FFADF
S214084C908EFECEEB000E8FB2B0B27744C0EB11405A
S214084CA000EB2740BFB247EA0047914543F8047B2C
S214084CB04FEA20404FEA1646DDD2009A61465AF877
S214084CC0023093B9019A131F9A450CD252F8043C45
S214084CD04BB9A2F1080302E01A68043B1AB99A45D0
S214084CE005F1FF35F8D3CBF81050584602F0CAF94C
S214084CF000282EDB08F101085346002254F8046BFE
S214084D001868B1B2511A87B2360C3944C6EB10404F
S214084D1000EB214289B241EA0241A14543F8041B4F
S214084D204FEA2242EAD25AF825200AEB850382B9CE
S214084D301A1F92450BD253F8042C42B9083B02E0DE
S214084D401A68043B1AB99A4505F1FF35F8D3CBF82B
S214084D501050404603B0BDE8F08F002003B0BDE811
S214084D60F08F00BF000000002DE9F04F016C9BB0EB
S214084D70044692469B46279D41B1436C01229A40C1
S214084D804B608A6001F088FF00232364BBF1000FA4
S214084D90D94633DB00232B60A54B1A4609EA0303E2
S214084DA0934214D0504659460022002303F01EFBB7
S214084DB0804648B3269E289D01233360002D00F0C8
S214084DC0CA809C48286001381BB0BDE8F08F269D35
S214084DD042F20F732B60BAF1000F00F0A5809648D8
S214084DE0289E002EF0D0C378002B00F0B68000F185
S214084DF00803289D2B601BB0BDE8F08F01232BF01D
S214084E0000492B60CB46C7E719AA18AB8DE80C00FB
S214084E10204652465B4602F0C5F95FEA19550A90E5
S214084E2040F08B80189F199D6FF482633D449D4225
S214084E30C0F295821F3305F212425B1B09FA03F390
S214084E402AFA02F243EA020002F0F2FF0126013DC6
S214084E50B846A1F1F87116960022784B02F0AAFE21
S214084E606DA3D3E9002303F059F86DA3D3E9002313
S214084E7002F0A2FE064628460F4602F0E9FF6AA39D
S214084E80D3E9002303F04AF802460B463046394673
S214084E9002F092FE06460F4603F0DAFA3946079005
S214084EA000223046002303F0ABFA002840F029829F
S214084EB0079E162E00F222826149524601EBC60171
S214084EC05B46D1E9000103F0B9FA002800F04C82ED
S214084ED0013E079600260E96C5EB0805013D069589
S214084EE000F1268200250895079E002EC0F217823C
S214084EF0069D0D963544002606950C96249D092D8C
S214084F002DD8052DC4BF043D2495249EC8BF002572
S214084F10A6F10203D8BF0125032B22D8DFE813F039
S214084F20B7039E02C0039A04464A434BC9F31300CC
S214084F3000280CBF1046184652E7CBF3130343F07D
S214084F407F51CDF858805046A5F2FF3541F4401100
S214084F50DDF8608080E73C4836E7C31C49E7002553
S214084F602495002565642946204601F06FFE4FF01B
S214084F70FF390126099025952064CDF83C900B96BC
S214084F80199B002BC0F2D280079E0E2E00F3CE800F
S214084F902B4B03EBC603D3E90001CDE904012599A1
S214084FA00029C0F28083DDE904235946504603F001
S214084FB0DFF803F04DFA054602F04AFFDDE9042360
S214084FC002F0ACFF02460B465046594602F0F2FD88
S214084FD0099A05F13003B9F1010F06460F4613701A
S214084FE002F1010B64D00022184B02F097FF002252
S214084FF0002306460F4603F0F9F9002840F08180A2
S214085000DDF82480099DC844DDE904AB05F10209F2
S214085010039428E0AFF3008061436F63A787D23F0D
S214085020B3C8608B288AC63FFB799F501344D33F8A
S2140850300000F07F158B0800548B08000000F83F2E
S214085040688B0800488B0800148B08000000244072
S21408505002F064FF0022002306460F4603F0C6F956
S214085060002840F0C18352465B463046394603F076
S2140850707FF803F0EDF9054602F0EAFE52465B4675
S21408508002F04CFF02460B463046394602F092FDC7
S21408509005F1300EC14509F801EC4C4606460F46A8
S2140850A04FF00002A74B09F10109D1D1A346039C92
S2140850B032463B463046394602F07EFD06460F46E7
S2140850C03246DDE904013B4603F09AF940B9DDE9CA
S2140850D0040132463B4603F089F990B1EB0710D538
S2140850E01BF8015C099A05E09A4200F0298413F837
S2140850F0015C9B46392D0BF1FF33F5D06A1CD2B202
S2140851001A7020460A9901F0C7FD079E269D731C53
S214085110289E00228BF800202B60002E00F02583A6
S2140851200998C6F800B01BB0BDE8F08F0B9D002D9F
S21408513000F00381249E012E40F3DC820C9E09F1C8
S214085140FF37BE42C0F28983F71BB9F1000FC0F2E1
S2140851508784089D4B46089E20461E440896069E51
S21408516001211E44069601F039FE064665B10698EA
S214085170002809DD03460899AB42A8BF2B46C91A82
S214085180C01A0891ED1A06900C9A002A1DDD0B9B92
S214085190002B00F05883002F11DD31463A46204692
S2140851A001F0C4FE064631460A9A204601F020FE63
S2140851B00A998046204601F06FFDCDF82880DDF874
S2140851C030E0BEEB070240F08F822046012101F056
S2140851D005FE80460D98002805DD414620460D9AB6
S2140851E001F0A4FE80462499012940F3C1820027D5
S2140851F00D98002840F0AF820120069B034413F068
S2140852001F0300F0A180C3F12002042A40F3B784EC
S2140852100899069AC3F11C0319441A4408911D44B8
S21408522006920899002905DD0A99089A204601F091
S214085230CBFE0A90069A002A04DD4146204601F075
S214085240C3FE80460E9B002B40F06A82B9F1000F21
S21408525040F3A6820B98002840F088800B9D0A9F92
S214085260DDF824B006E0394620460A22002301F07D
S2140852701DFD074638464146FFF7DAFC30300BF886
S21408528005000135A945EEDCDDF824B082460A970C
S214085290B9F1010FACBFCB440BF1010B00250A99FD
S2140852A00122204601F090FE41460A9001F0EAFEEF
S2140852B0002840F309831BF8012C099905E0994258
S2140852C000F08B8213F8012C9B46392A0BF1FF332A
S2140852D0F5D001321A704146204601F0DDFC002E5A
S2140852E03FF40FAF2DB1B54203D02946204601F052
S2140852F0D3FC3146204601F0CFFC02E701260E9685
S214085300EAE5079802F0A4FD32463B4603F06EF83D
S21408531000287FF4CDAD079E013E0796C8E5079E98
S214085320089DAD1B0895754200260C950D96E5E57B
S2140853306D42002608950696D6E50C9F089D0B9E9E
S21408534014E700BF000024401C23DDF820E0069880
S2140853509E441844CDF820E01D44069061E7A7480F
S214085360401B0AFA00F06FE50E90B5E5002D05DD46
S21408537031462A46204601F027FE0646002F40F012
S214085380E9823746099D09984D4408950AF00105B3
S2140853900B95DDF82890451C0AE001F087FC394695
S2140853A006460A222046002301F080FC07460135FF
S2140853B041464846FFF73CFC31468346484601F0DE
S2140853C061FE414603903A46204601F07FFEC268D9
S2140853D0691E03460BF1300A0691002A40F09381B5
S2140853E019464846029301F04DFE029B02461946AE
S2140853F02046029201F050FC029A2AB9249B1BB957
S2140854000B98002800F09383039B002BC0F234828D
S21408541005D1249818B90B99002900F02D82002A86
S21408542000F3AC82DDF820E005F801AC7545AB4624
S21408543000F0B48249460A220023204601F036FCD2
S214085440BE428146314620464FF00A024FF000031E
S214085450A3D101F02BFC06460746A8E700260B96C4
S214085460079EDDF894E0B6440EF10109B9F1000F85
S214085470CDF83CE04E4640F350810021172E61647B
S2140854800AD9012204235B0003F11400B042114636
S21408549002F10102F7D96164204601F0D7FB0E2E0F
S2140854A0099020643FF66CAD002D3FF469AD079D6A
S2140854B0CDE912AB002D40F31C82514B05F00F02CC
S2140854C003EBC2032D11D3E90067EB0640F1CD814B
S2140854D04C4B50465946D3E9082302F049FECDE91D
S2140854E0100105F00F054FF003088DB1DFF814A181
S2140854F030463946EE0705D5DAE9002308F10108F3
S21408550002F00CFD6D100AF1080AF3D106460F46A4
S214085510DDE9100132463B4602F02AFE82468B46FB
S2140855200E9D45B1504659460022374B02F068FF9B
S214085530002840F0AA82404602F08AFC52465B46A3
S21408554002F0ECFC0022314B02F036FB0646A1F1D5
S2140855505077B9F1000F00F05A81079DC846179595
S2140855600B9D002D00F02382254B002003EBC8037B
S21408557053E90223264902F0FBFD32463B4602F079
S21408558019FBCDE910015946504602F061FF054661
S21408559002F05EFC02460B465046594602F00AFBED
S2140855A03035099ECDE90401DDE90423DDE9100163
S2140855B0EDB2357006F1010B02F040FF002840F00E
S2140855C0AB82DDE9042300200F4902F0F3FA024615
S2140855D00B46DDE9100102F031FF002840F0A282F8
S2140855E0B8F1010F40F38181B044CDF85090A2463F
S2140855F0C146DDE90467DDE9104519E0EEFBFFFF6B
S214085600688B0800308C08000000F03F00001C4043
S2140856100000E03F0020A84902F0CCFA22462B46BC
S21408562002F0EEFE002840F07B82CB4500F05A815F
S214085630204629460022A14B02F070FC00229F4B10
S21408564004460D463046394602F068FC0F460646C4
S21408565002F0FEFE804602F0FBFB02460B46304692
S214085660394602F0A7FA08F130085FFA88F82246A9
S2140856702B460BF8018B06460F4602F0C1FE324653
S2140856803B460028C6D0179E5446079639E500269E
S2140856900B96259800283CDD06460F908146ECE6DA
S2140856A001260B96F5E7B9F1000F3FF77CAC40F002
S2140856B0C680DDE904010022814B02F02FFC524629
S2140856C05B4602F0B1FEC8464E4600287CD0259DB3
S2140856D0DDF824B0ED4307954146204601F0DCFA94
S2140856E0002E7FF406AE0CE50A99204601F01EFC53
S2140856F00A906AE5169D002D00F0B88103F2334340
S2140857000C9F089D27E50146204601F0C5FA0122B0
S2140857107AE6012625960F96B14600216164BBE617
S2140857200A98414601F0AEFC0028BFF68FADDDF8BA
S2140857301CE00A990EF1FF3E20460A220023CDF807
S2140857401CE001F0B3FA0A900B98002840F0098292
S214085750DDF83C907AE5D8F8103008EB8303186932
S21408576001F0EEFAC0F1200047E50998FFF72CBBD8
S214085770BAF1000F7FF43BADCBF31303002B40F0D8
S2140857807C812BF000473F0D3F05002F3FF430ADDE
S214085790089A069B0132013308920693012727E5EB
S2140857A0249902297FF756ADB9F1000F8FD14146EB
S2140857B04B460522204601F079FA804641460A986B
S2140857C001F060FC002882DD079D3123013507952E
S2140857D0099D2B7005F1010B7EE70798099931237F
S2140857E0013007900B7076E5A346039C89E4404693
S2140857F002F02EFB02460B465046594602F08EFB38
S2140858000022304B02F0D8F90646A1F150775046F0
S214085810594600222A4B02F0CDF932463B468246CC
S2140858208B4602F00BFE002840F0BD80324607F19A
S21408583000435046594602F0E3FD002855D04FF085
S2140858400008464643E70A990C9A204601F06EFB84
S2140858500A90BAE401260B9602E60C9D0D9E7B1B69
S2140858601E440C970D9600276FE4DDE912014FF0F1
S2140858700208CDE9100138E6002ACDF82890D94666
S21408588011DD0A990122204601F09EFB41460A9046
S21408589001F0F8FB002840F35D81BAF1390F00F0FB
S2140858A01B8109F1310A069B354683F800A003F1EF
S2140858B0010B3E460FE500BF0000F03F0000244005
