S01F0000706C6174666F726D677275707065726E61735F52544F532E73726563B2
S21408000028C807202515080021150800211508000E
S2140800102115080021150800211508000000000019
S214080020000000000000000000000000C1170800E3
S21408003021150800000000003D180800791808007F
S21408004021150800211508002115080021150800AB
S214080050211508002115080021150800211508009B
S214080060310408002115080000000000FD110800F2
S21408007011120800251208003912080000000000B6
S21408008000000000190F0800290F0800390F0800A3
S214080090490F080021150800211508002115080039
S2140800A02115080000000000211508002115080089
S2140800B0211508002115080021150800211508003B
S2140800C0211508002115080021150800211508002B
S2140800D0211508002115080021150800211508001B
S2140800E0211508002115080021150800211508000B
S2140800F02115080010B5054C237833B9044B13B105
S2140801000448AFF300800123237010BD880507203C
S21408011000000000E031080008B5064B1BB1064891
S2140801200649AFF300800648036813B1054B03B1D0
S214080130984708BD00000000E03108008C0507203D
S214080140E03108000000000070B5C0EBC0021F4B8D
S21408015003EB82039C699A6894420AD129B9002263
S214080160DA605B689C4229D910E05968091BD96097
S21408017007E0944202D9A41ADC6002E05968891A9A
S214080180D960D9680A445C68A24203D9104B9847DC
S21408019000BFFDE791B10F4D04012A195668304695
S2140801A003F1080100220C4B9847304601210B4BFF
S2140801B09847285909210A4B984770BD0001054BF6
S2140801C018580921074B984770BD00BFA40507209B
S2140801D0F1170800E8300800F90F080011100800A9
S2140801E0E5130800E91308002DE9F04782B0054634
S2140801F08946164601270DF1080808F8047D564872
S21408020039462A46554B98470446307B41463A4677
S214080210534B9847002C00F39880002800F09780EE
S214080220C4EBC4024F4B03EB82039B691BB14E4BD6
S214080230984700BFFDE728464C4B984728464C4B46
S2140802409847454F07EB0417D7F80480404640F216
S2140802500221484B9847B868474B9847337B012B91
S21408026003D128464946454B984728464FF0FF3164
S214080270434B9847707B434901EBC4010022424B2D
S21408028098473368002B46D04FF0FF3000213F4B8D
S2140802909847C4EBC402334B03EB8203186118B9C2
S2140802A0314B984700BFFDE7DFF8B890E300C4EB92
S2140802B0030A4FEA8A0A09EB0A073268BA607268C4
S2140802C0FA601B1B09EB8301404608310022304BBD
S2140802D098473368BB61BB6849F80A3072681344AC
S2140802E07B60737B13F0020F0CD00120294B9847D4
S2140802F0C4EBC40209EB8203586118B91A4B984735
S21408030000BFFDE728460921234B984740460121B0
S214080310224B984706E0C4EBC402124B03EB820359
S21408032001229A610C4F24013B1993F90C00B1681D
S2140803301B4B98473859E021174B98472846194BC6
S21408034098472846184B984702E0002500E0002505
S214080350284602B0BDE8F087E83008009106080095
S214080360BD060800A4050720F1170800CD130800ED
S214080370DD1308001D100800351308008D1308004B
S214080380E9130800C0050720ED060800311C080020
S214080390F90F0800751D0800E5130800111008007D
S2140803A099070800C5130800D51308002DE9F04181
S2140803B084B0044688461746039316480121224609
S2140803C0154B9847061E20DC144D05EBC605284637
S2140803D003A9134B98470346C0B90E4B03EB061602
S2140803E073680A9A009201220192284641463A46C4
S2140803F00C4EB047204610210B4B984728460A99C2
S214080400039A0A4B9847034600E0F82358B204B00C
S214080410BDE8F081E830080091060800C00507200E
S21408042085080800D5080800E513080055090800DF
S21408043030B583B000230193324D2846324B984797
S21408044004462846314B9847044014F0100F13D042
S214080450284610212E4B98472E4B586820B100216D
S21408046001AA0B462C4DA8472A4B186820B1002134
S21408047001AA0B46284DA84714F0080F23D0274B8F
S2140804809B691BB9264B984700BFFDE7012B03D194
S214080490234B984700BFFDE7204BD9689A680A4463
S2140804A09A605B689A4202D31C4B1A689A600020CE
S2140804B001461C4B9847194B186920B1002101AA20
S2140804C00B46154DA84744B9144B186998B1002136
S2140804D001AA0B46104CA0470DE014F0E00F0AD016
S2140804E00848114B98470B4B586820B1002101AAC1
S2140804F00B46094CA047019B0BB10C4B984703B021
S21408050030BD00BF00080E40F1130800ED130800C8
S214080510E9130800C0050720D91D0800A405072010
S214080520F117080049010800F5130800E11708004C
S21408053070B582B0054B984702AC44F8040D4FF4EA
S214080540FA76034D20463146A847FBE7E92208001D
S2140805503125080070B582B0054B984702AC44F8C0
S214080560040D4FF4FA76034D20463146A847FBE7BC
S214080570E922080031250800F0B589B00446124A79
S21408058005AB07CA03C31A702468104B9847049033
S2140805900F4D104E104F204602A908220A23A847DE
S2140805A09DF80930C82B03D102A80821B84705E0F2
S2140805B000230093204605A90822B04704A84FF454
S2140805C0FA71064B9847E6E7F8300800E922080073
S2140805D0C10D0800390D0800090608003125080075
S2140805E008B504480449054A054B9847054B186062
S2140805F008BD00BF00080E40043108002C01072083
S214080600E901080014A8072010B582B004460A4677
S214080610044B1868002300932146034CA04702B0F9
S21408062010BD00BF14A80720AD03080010B50E487B
S2140806300E4B984700203E210D4B98470D4CA0477F
S2140806400028FCD00C4B98470C4A0D4B9A620D4C70
S214080650A0470028FCD010200B4B98470B4B984718
S2140806600148024B984710BD00BD0105A5000720AC
S214080670B11208000513080015130800013F0D20E5
S21408068000060E40251308004D120800D515080070
S21408069030B40D4669B1036893420CD00346002077
S2140806A003E053F8104F944206D00130A842F8D120
S2140806B002E0002000E0002030BC7047002A0EDD73
S2140806C00B7883420DD00B460139114403E013F82A
S2140806D0012F824207D08B42F9D1002070470020B4
S2140806E07047012070470120704700BFF8B50646DE
S2140806F00D46144610F0010F08D00120214B9847EC
S214080700686018B9204B984700BFFDE716F0040F3D
S21408071017D00120002103221C4B9847286030B1CF
S21408072000210A460B461A4FB847286818B9164BD0
S214080730984700BFFDE700210A460B46154DA84717
S21408074001E000232B6016F0080F18D0BCB101207A
S214080750002103220D4B9847206030B100210A463D
S2140807600B460B4DA847206818B9074B984700BF9B
S214080770FDE700210A460B46064CA047F8BD0023B5
S2140807802360F8BD751D0800F1170800D91B08007E
S214080790591C0800691E080010B50F2903D9154B07
S2140807A0984700BFFDE7092903D8124B984700BFB2
S2140807B0FDE7C2B202F01F0301249C4043099B00D8
S2140807C003F1604303F56143C3F88041002806DA65
S2140807D002F00F000901C9B2074A115407E00A01DE
S2140807E0D2B200F1604000F5614080F800231C603A
S2140807F010BD00BFF117080014ED00E02DE9F04128
S214080800044690461F468669B14204D1C36853B968
S21408081045686D1A08E08E4232BFC6EB010545688A
S214080820C6EB050500E00025BD420AD3AF4207D057
S214080830206900210A460B460E4DA8473D4600E0B3
S2140808403D464046A1692A460B4B98472E446368A6
S2140808509E4206D3094B98472368A361084B9847DE
S21408086004E0064B9847A661054B98472846BDE81E
S214080870F08100BF591C08000D2E0800011808005A
S2140808802118080030B583B004460D46436893B176
S21408089068460D4B9847606800212A680B460B4C43
S2140808A0A04750B168462946094B9847012806D103
S2140808B00020286004E0002002E0FD2000E0002080
S2140808C040B203B030BD00BFFD270800691E08000F
S2140808D025280800F0B583B00E4615461C46089B2A
S2140808E013B10360184601E0006820B100210A46EB
S2140808F00B46134FB847009601959DF824307BB1F8
S21408090020464FF400710F4B984720466946002250
S2140809100D4B984720464FF480710C4B98470CE0D7
S21408092020460221074B9847204669460022084B76
S214080930984720460121054B984703B0F0BD00BFF5
S214080940691E08001D100800E10F080011100800B5
S214080950F90F080010B549B9006848B10B46064CAF
S214080960A047012814BFFD20002002E0002000E078
S214080970002040B210BD00BF691E080070B5C0EB6D
S214080980C002204B03EB82039C699A6894420AD102
S21408099029B90022DA605B689C422AD910E05968B7
S2140809A0091BD96007E0944202D9A41ADC6002E069
S2140809B05968891AD960D9680A445C68A24203D97A
S2140809C0114B984700BFFDE799B1104D04012A194D
S2140809D05668304603F1080100220D4B984730460A
S2140809E001210C4B984728594FF484710A4B9847B5
S2140809F070BD0001054B18584FF48471074B984793
S214080A0070BD00BFC8050720F117080010310800A0
S214080A10F90F080011100800011508000515080050
S214080A202DE9F04383B004460023019303013B4AB3
S214080A30D65830463A4B984705463046394B98477D
S214080A400540DFF80491C4EBC4084FEA880809EBB0
S214080A50080715F0100F18D030461021324B98476B
S214080A60324B03EBC403586828B1002101AA0B4691
S214080A70DFF8C8C0E0472D4B53F8340028B10021F2
S214080A8001AA0B46DFF8B4C0E04715F0080F21D0DE
S214080A90BB691BB9264B984700BFFDE7012B03D15E
S214080AA0234B984700BFFDE7FA68BB681344BB6052
S214080AB07A68934224BF59F80830BB602046002164
S214080AC01C4B9847386928B1002101AA0B46DFF865
S214080AD06CC0E04715F4807F09D03046164B98471F
S214080AE0386920B1002101AA0B46144FB84715F003
S214080AF0E00F0CD03046124B98470C4B03EBC4045F
S214080B00606820B1002101AA0B460C4CA047019B47
S214080B100BB10C4B984703B0BDE8F08310310800C2
S214080B200D150800091508000515080038060720E1
S214080B30F11708007D09080019150800D91D0800D6
S214080B4011150800E1170800C80507202DE9F04729
S214080B5082B005468946164602AF002307F8043DCC
S214080B605C4804212A465C4B98470446307B394645
S214080B7001225A4B9847032C00F3A580002800F062
S214080B80A480C4EBC402564B03EB82039B691BB1DB
S214080B90544B984700BFFDE72846534B98472846CE
S214080BA0524B98474B4F07EB0417D7F8048040463C
S214080BB040F202214E4B9847B8684E4B9847337B15
S214080BC023B9284649464C4A4C4B984728464FF086
S214080BD0FF314B4B9847707B4A4901EBC401002212
S214080BE0494B98473368002B53D04FF0FF3000210D
S214080BF0464B9847C4EBC402394B03EB8203186193
S214080C0018B9384B984700BFFDE7D9F80010404B95
S214080C10A3FB0121284689093E4B984728463E4BA8
S214080C209847DFF8BC90E300C4EB030A4FEA8A0A49
S214080C3009EB0A073268BA607268FA601B1B09EB90
S214080C408301404608310022344B98473368BB611D
S214080C50BB6849F80A30726813447B60737B13F0EC
S214080C60020F0CD001202E4B9847C4EBC40209EBA8
S214080C708203586118B91B4B984700BFFDE7284602
S214080C804FF48471274B984740460121264B9847D6
S214080C9006E0C4EBC402124B03EB820301229A61FE
S214080CA00C4F24013B1993F90C00B1681F4B984769
S214080CB03859E0211B4B984728461D4B984728462D
S214080CC01C4B984702E0002500E00025284602B0A5
S214080CD0BDE8F0871031080091060800BD06080038
S214080CE0C8050720F1170800E5140800F5140800E1
S214080CF01D1008003513080000BD010589140800FA
S214080D000515080038060720ED060800311C0800FF
S214080D101F85EB51FD14080019150800F90F080087
S214080D20751D08000115080011100800990708002D
S214080D30DD140800ED1408002DE9F04184B00646DD
S214080D40884617460393174804213246164B984799
S214080D500446032820DC154D05EBC005284603A9E4
S214080D60134B98470346C0B90E4B03EB041463684D
S214080D700A9A009201220192284641463A460D4CAC
S214080D80A047304610210C4B984728460A99039AE4
S214080D900A4B9847034600E0F82358B204B0BDE86B
S214080DA0F08100BF103108009106080038060720B9
S214080DB085080800D5080800011508005509080028
S214080DC02DE9F04F85B004468846174601934648F5
S214080DD004212246454B98470446C0EBC002444BC4
S214080DE003EB82039B691BB9424B984700BFFDE79C
S214080DF0012B03D13F4B984700BFFDE703285BDC78
S214080E003B4AC0EBC0039B00D1184968D358CB1A9D
S214080E10BB4253D302A8384B9847C4EBC402344BA2
S214080E2003EB8203586900284AD00021019A0B4632
S214080E30324DA847012851D102A801A9304B98473E
S214080E4001283DD1C4EBC404294B03EB840358693D
S214080E5000210A460B462B4CA0473FE0306900218C
S214080E60019A0B46D847DAF804301968304608EB7A
S214080E7005027B1BC8472D1809D0234B9847F368F3
S214080E801BB920460121214B9847214B9847AF4272
S214080E9005D902A801A91A4B98470028DED0C4EB4A
S214080EA0C404134B03EB84035869C0B100210A46F7
S214080EB00B46144CA04712E0002510E000250EE073
S214080EC00025C4EBC4060A4B03EB8606DFF82CB0F5
S214080ED0054B03EB041ADFF83C90BFE700252846CD
S214080EE005B0BDE8F08F00BF103108009106080075
S214080EF0C8050720F1170800FD270800691E080026
S214080F0025280800591C0800011808007D09080053
S214080F1021180800FD07080008B50020014B98476F
S214080F2008BD00BF210A080008B50120014B9847F4
S214080F3008BD00BF210A080008B50220014B9847E3
S214080F4008BD00BF210A080008B50320014B9847D2
S214080F5008BD00BF210A080010B54FF400421A4B1E
S214080F605A600B20194CA0470C20A0470D20A0471C
S214080F700E20A0473B204FF06051154CA047552047
S214080F804FF06051A04756204FF06051A0476820A8
S214080F901049A0475C201049A047104B4FF4405218
S214080FA01A665A655A62C3F88020196F21F44051B0
S214080FB019675A602B204FF00061A0472A204FF08F
S214080FC00061A04710BD00BF501A0E403513080038
S214080FD0D11008007900002801000028000E0E40F5
S214080FE00B4619B1096881605B68C3601AB113685B
S214080FF083615368C36170470B4619B1096801607D
S2140810005B6843601AB113680361536843617047AD
S21408101021F0FE01C905C90D0162704721F4FE7171
S21408102021F001018905890D016270474264B1F11A
S214081030805F16D004D8C1B1B1F1006F0AD013E0B2
S214081040B1F1405F11D0B1F1605F0ED0B1F1205F11
S2140810500AD17047036F016F0B4023EA0203036748
S21408106002E0036F1343036742607047416412F05F
S214081070010F14BF4166016612F00A0F14BF016221
S214081080416212F0020F02D0C0F8801004E012F09D
S214081090080F18BFC0F8841041610160704700BF90
S2140810A010B44164019C0CB1416600E001660BB1C6
S2140810B0016500E041650AB1016300E04163016132
S2140810C001605DF8044B7047C06C7047806C7047D1
S2140810D070B582B00D46440904F5001404F207748E
S2140810E0660201F0F044B4F1205F30D006D8B4F1BF
S2140810F0006F0AD0B4F1805F18D049E0B4F1405FC1
S21408110030D0B4F1605F2DD042E000F01F0001241B
S214081110844030464FF0006122461F4B984715F032
S214081120010F14BF74663466012032E000F01F0019
S2140811300124844030464FF080512246164B98478B
S21408114015F0010F14BF74663466012021E000F024
S2140811501F010124304604FA01F12A460F4B98472E
S214081160204616E000F01F01012405F0605205EA4B
S21408117004030093304604FA01F1B2F1605F14BF2D
S21408118000220122C5F38003054DA847204600E04B
S214081190002002B070BD00BF2D1008006D100800BA
S2140811A0A11008002DE9F04104460E46104B98475A
S2140811B0054620460F4B9847054017D00E4F07F1B7
S2140811C00C046C3754F80C3CB3420AD154F8081C8B
S2140811D0294206D023683046984754F8083C25EA42
S2140811E00305BC4202D01034002DEBD1BDE8F081D7
S2140811F0C9100800CD1008005806072008B5024890
S2140812000B21024B984708BD000E0E40A51108009A
S21408121008B502480C21024B984708BD00100E403E
S214081220A511080008B502480D21024B984708BDCD
S21408123000120E40A511080008B502480E21024B00
S214081240984708BD00140E40A5110800174B1A6BE6
S21408125022F07002104318639B6E13F0080F09D132
S2140812604FF40063114901E0013B19D08A6E12F071
S214081270080FF9D00D4B1A6B22F0030242F0020257
S2140812801A63986E10F008000CD14FF400630749F3
S21408129001E0013B08D08A6E12F0080FF9D07047BB
S2140812A001207047002070470120704700060E4056
S2140812B038B111490B6A114A1A40114B13430B6295
S2140812C070470D4A136A23F45C1323F0030343F4B0
S2140812D05C1343F00103090289B20B431362936E51
S2140812E013F0010FFBD0044A136A43F09B7343F4D0
S2140812F080331362704700BF00060E40FCFFC8FE2E
S21408130002003701024B986E00F48030704700BF29
S21408131000060E404FF00052014B9A62704700BF1D
S21408132000060E40024B986E00F00200704700BFA1
S21408133000060E402C2820D81F280DD8124B9A6974
S214081340012383401A40934219D0012303FA00F080
S2140813500D4B1861002070470B4BD3F80821203836
S214081360012383401A4093420BD0012303FA00F06E
S214081370054BC3F800010020704701207047002085
S21408138070470020704700BF00060E4010B4AC231C
S21408139003600A684B68B2FBF3F31B095C1E4FF642
S2140813A0FE7294420AD803628B68436040F20223B6
S2140813B0C0F8203150230360002000E001205DF8CB
S2140813C0044B704740230360704700BF80230360C8
S2140813D0704700BF10230360704700BF20230360D8
S2140813E0704700BF81607047C160704700697047EA
S2140813F0406970474FF480730360704710B40B0160
S21408140093420DD91AE0416841F40021416042EA4E
S21408141003430362002020E001201EE001201CE0B8
S214081420D20002EB5302B2FBF3F3DA0803F0070329
S214081430541E4FF6FE718C42E9D9EDE7C900D30079
S21408144003EB5103B3FBF1F3DA0803F00703541E6A
S2140814504FF6FE718C42D6D9E0E75DF8044B70472C
S214081460084BC0F8E4300023436043628362882355
S2140814700360242303604FF4807303604FF4002353
S214081480036070470041535570B505460C4616462E
S2140814900F4B984700210F4B19609CB128462168CE
S2140814A032460D4B9847034670B9A16862680A43EE
S2140814B021690A43E068024306490A6069680A43E4
S2140814C06A6002E0012300E00123184670BD00BFF1
S2140814D061140800C8060720FD13080040230360AF
S2140814E0704700BF80230360704700BF1023036067
S2140814F0704700BF20230360704700BF41627047F3
S21408150081607047C16070470069704740697047DE
S2140815104FF48073036070474FF4006303607047AE
S214081520FEE700BF10B51E4B1E4A9A4203D01E4B5C
S2140815301B4A9A4204D31D4B1D4A9A420FD31AE0FF
S2140815401C4B1D4CE41A24F00304043400231448EE
S21408155014495A581A500433A342FAD1EBE7174BEA
S2140815601749C91A21F003011A1D1144002243F82D
S214081570042F8B42FBD1134A22F0604323F07F03EB
S21408158011498B6002F16042B2F5801F03D28A6867
S21408159042F000528A600D4B98470D4B9847FEE77D
S2140815A000000720E03108008805072024A8072047
S2140815B088050720040007208B05072084050720D8
S2140815C01FA807200000080000ED00E0BD2D080059
S2140815D0192D08003E4B1B6B03F00303032B5FD843
S2140815E0DFE803F0020E2B2B3A4B5B6913F0800FF3
S2140815F014BF4FF400424FF4FA42374B1A604FE0DC
S214081600334B1B6A13F0807F03D0344A324B1A6080
S21408161046E0334A304B1A602D4B1B6A03F07003C2
S214081620102B02D0202B04D03AE02E4A2A4B1A6000
S21408163036E02A4A284B1A6032E0254B1B6A13F01C
S214081640807F03D0254A244B1A6012E0244A224B96
S2140816501A601F4B1B6A03F07003102B02D0202B56
S21408166004D006E01F4A1C4B1A6002E01B4A1A4BBD
S2140816701A60174B1B6B03F00303022B0DD1144B98
S214081680986A996A144BC0F30A401A6800FB02224B
S214081690C9B2B2FBF1F21A6002E0134A0E4B1A60A6
S2140816A00B4B1B6B03F07003702B07D10A4B1A68A1
S2140816B00E49A1FB020252081A607047044B196BC8
S2140816C0054BC1F302111A68CA401A60704700BF7A
S2140816D000060E40101A0E403C010720001BB700FB
S2140816E000093D0000127A00001C4E0EABAAAAAAFA
S2140816F000F1080343604FF0FF328260C360036165
S21408170000230360704700BF00230361704700BFD3
S21408171043685A684A6042688A605A6891605960A5
S21408172041600861036801330360704710B40C68B1
S214081730B4F1FF3F01D103690AE000F10803C2686B
S2140817401268944204D35B685A6812689442FAD2C4
S2140817505A684A6091608B60596008610368013373
S21408176003605DF8044B7047436882689A60836834
S21408177042685A6003695A68824204BF82685A609F
S214081780002202611A68013A1A601868704700BF9A
S21408179003480068006880F3088862B600DF00BF68
S2140817A008ED00E04FF0807340F8043C40F8081C51
S2140817B0002340F80C3C40F8202C4038704700BF07
S2140817C0064B19680868B0E8F00F80F309884FF0F0
S2140817D0000080F311884EF00D0E704794A707207E
S2140817E04FF08052014B1A60704700BF04ED00E0CE
S2140817F0EFF311804FF0A00181F3118870470020A5
S21408180008B5034B9847034B1A6801321A6008BD9F
S214081810F11708004001072080F31188704700BFC1
S21408182008B5044A1368013B136013B90020024B3D
S214081830984708BD4001072019180800EFF30980EB
S2140818400C4B1A6820E9F00F10602DE908404FF09D
S214081850A00080F3118800F0F5FE4FF0000080F33A
S2140818601188BDE8084019680868B0E8F00F80F3EA
S2140818700988704794A7072008B54FF08052054B93
S2140818801A60054B9847054B98470020044B984725
S21408189008BD00BF04ED00E0F117080009230800A2
S2140818A019180800034A044B1A600722043B1A60FA
S2140818B0704700BF1F48010014E000E010B5094B50
S2140818C01A6842F470021A601A6842F070421A6087
S2140818D0054B98470024054B1C60054B9847204647
S2140818E010BD00BF20ED00E0A51808004001072045
S2140818F09117080030B4134A1368834201D21A4677
S214081900FAE7114654681519854203D168680444F5
S2140819105460104642688418A3420CD10A4C2468C6
S2140819209C4206D05B681A4442600B681B680360DA
S21408193002E0036000E00360814218BF086030BC24
S214081940704700BFD4A60720D0A6072038B504469F
S214081950284B9847284B1B689BB9284A284B136086
S2140819600021516049F6F0729818234D286049F610
S214081970F475595199505A601860224B1A68103AF3
S2140819801A60002C2DD004F1100212F0070F1CBFAD
S21408199022F007020832511E49F6FE73994222D8F1
S2140819A016490C6863689A4204D9236813B121461D
S2140819B01C46F7E7104B1B689C4216D00D6810357E
S2140819C023680B6063689B1A202B04D9A018436011
S2140819D062600D4B98470B4B1A686168521A1A607A
S2140819E004E0002502E0002500E00025074B9847A4
S2140819F0284638BDD9220800D0A60720D4A6072036
S214081A00D006072044010720F518080029240800F6
S214081A1010B5044668B1074B9847074B196854F841
S214081A200C2C0A441A60A4F11000044B9847044B87
S214081A30984710BDD922080044010720F518080069
S214081A402924080010B50446036C3BB903681BBB81
S214081A504068134B9847002363601DE06AB98068A6
S214081A601A46104B9847A268236C1344A360626812
S214081A70934211D32368A3600EE0C0681A46094B48
S214081A809847226C5242E3681344E36021688B420D
S214081A9002D263681A44E260A36B0133A36310BDE5
S214081AA05D2908000D2E080038B5034605685DB1A7
S214081AB0026CC4681444C4604068844228BFDD6071
S214081AC00846D968014B984738BD00BF0D2E080058
S214081AD0F8B504461D4B9847A36C002B12DD636AC5
S214081AE083B104F124061A4D1A4F01E0636A4BB11C
S214081AF03046A84700B1B847A36C013BA364A36C63
S214081B00002BF3DC4FF0FF33A364134B98470F4BBF
S214081B109847636C002B12DD236983B104F1100625
S214081B200B4D0C4F01E023694BB13046A84700B176
S214081B30B847636C013B6364636C002BF3DC4FF0BF
S214081B40FF336364044B9847F8BD00BF01180800CC
S214081B5079270800A92808002118080038B50D4676
S214081B60044618B9164B984700BFFDE7154B98472B
S214081B702368226CE06B00FB02F0191861600021F4
S214081B80A163A360821A1344E3604FF0FF336364D3
S214081B90A36455B923697BB104F110000A4B984732
S214081BA0012809D1094B984706E004F11000084DB2
S214081BB0A84704F12400A847064B9847012038BDDB
S214081BC0F11708000118080079270800E11708002F
S214081BD0F116080021180800F8B50D4617460646FF
S214081BE088B150200E4B9847044660B105FB06F0B6
S214081BF001300B4B9847206040B92046094B984760
S214081C0001E000BFFDE7084B9847FAE7E66325645E
S214081C1020460121054B984784F84D702046F8BDAC
S214081C204D190800111A0800F11708005D1B080076
S214081C3010B50C4600210222054B984710B104E067
S214081C4000BFFDE7034B9847FAE7846310BD00BF63
S214081C50D91B0800F11708002DE9F04F85B08A4611
S214081C6001929B46044618B9364B984700BFFDE7D5
S214081C7009B9036C1BB90027334E344D03E0314BCA
S214081C80984700BFFDE7B047A26BE36B9A4212D2B3
S214081C90204651465A462E4B9847636A3BB104F194
S214081CA024002C4B9847012801D12B4B9847274BEB
S214081CB09847012043E0019B1BB9244B9847002016
S214081CC03DE01FB902A8254B98470127A847244B93
S214081CD09847B047636CB3F1FF3F04BF00236364C3
S214081CE0A36CB3F1FF3F04BF0023A364A84702A870
S214081CF001A91C4B9847E0B9B047D4F83890D4F8F7
S214081D003C80A847C1450ED104F110000199164B36
S214081D1098472046154B9847154B98470028B2D148
S214081D200D4B9847AFE72046104B9847104B9847FF
S214081D30A9E720460D4B98470D4B9847002005B05D
S214081D40BDE8F08FF11708000118080021180800F0
S214081D50451A080079270800E1170800FD2708003B
S214081D60D922080025280800D5260800D11A080018
S214081D702924080070B506465020134B9847044699
S214081D8010B104E000BFFDE7104B9847FAE70025BE
S214081D90456005608560C56085630123C363056487
S214081DA04FF0FF334364836480F84D601030084E6C
S214081DB0B04704F12400B047204629462A462B4659
S214081DC0044DA847204670BD4D190800F1170800B5
S214081DD0F1160800591C08002DE9F0410E46154674
S214081DE09846044618B91C4B984700BFFDE729B922
S214081DF0036C1BB1184B984700BFFDE7164B984776
S214081E000746A26BE36B9A4218D2204631464246F2
S214081E10124B9847A36CB3F1FF3F0AD1636A7BB1B4
S214081E2004F124000E4B984760B16DB101242C6074
S214081E300BE0A36C0133A364012406E0002404E04D
S214081E40012402E0012400E001243846054B9847A7
S214081E502046BDE8F08100BFF1170800451A0800C3
S214081E6079270800191808002DE9F04F85B089462B
S214081E7001929A46044618B9444B984700BFFDE7B6
S214081E8009B9036C2BB90027414EDFF834B1414D30
S214081E9003E03E4B984700BFFDE7B047A36B002B17
S214081EA028D0E568204649463B4B9847BAF1000FCC
S214081EB012D1A36B013BA363236813B9374B98472A
S214081EC06060236993B104F11000354B98470128E8
S214081ED00CD1344B984709E0E560636A33B104F1E6
S214081EE024002F4B984708B12E4B9847294B984704
S214081EF0012048E0019B1BB9264B9847002042E08A
S214081F0017B902A8D8470127A847274B9847B047CC
S214081F10636CB3F1FF3F04BF00236364A36CB3F1A3
S214081F20FF3F04BF0023A364A84702A801A91F4BCC
S214081F30984710BBB047D4F83880A847B8F1000FC8
S214081F4015D1236823B9B0476068194B9847A84746
S214081F5004F124000199174B98472046164B9847DA
S214081F60164B9847002898D10E4B984795E7204679
S214081F70114B9847114B98478FE720460E4B9847CA
S214081F800E4B9847002005B0BDE8F08FF117080003
S214081F900118080021180800A91A0800B528080022
S214081FA079270800E1170800D92208002528080024
S214081FB0E1280800D5260800D11A080029240800B8
S214081FC0FD27080038B504460D460D4B9847636C48
S214081FD0B3F1FF3F04BF00236364A36CB3F1FF3F74
S214081FE004BF0023A364074B9847A36B23B904F1E7
S214081FF024002946044B98472046044B984738BD8A
S214082000011808002118080035270800D11A08000A
S21408201010B504460E4B1B6858600E4B1B6898425A
S21408202007D20D4B18680A4B196804310B4B9847B2
S21408203010BD0B4B1868064B19680431074B9847B8
S214082040084B1B689C423CBF064B1C6010BD00BF7B
S21408205094A70720B0A70720B4A707202D170800C5
S214082060F4A60720480107202DE9F84F0E46174624
S2140820709A460A9DDDF83080814618B9624B984723
S21408208000BFFDE7042D03D95F4B984700BFFDE767
S2140820904C205E4B98470446002800F0B180B8F103
S2140820A0000F40F0A980B800584B9847206318B92D
S2140820B02046574B9847A3E0A521BA00554B9847AA
S2140820C007F18047013F236B03EB870323F0070BD9
S2140820D004F1340031460A224F4B9847002384F80F
S2140820E03D30042D34BF2E460426E662A664271D1E
S2140820F03846DFF87081C04704F11800C0472461ED
S214082100C6F10506A6616462584649465246434BE0
S2140821109847206010F0070F03D03B4B984700BF46
S214082120FDE70B9B03B11C603D4B98473D4B1A6877
S21408213001321A603C4B1B682BBB3B4B1C60394B6F
S2140821401B68012B29D1394E06F16409DFF8E080B7
S2140821503046C04714364E45FAD1DFF80C9148464B
S214082160334EB047DFF804814046B0473148B047A1
S2140821703148B0473148B047314BC3F80090314B2F
S214082180C3F8008009E0304B1B6833B9264B1B6840
S214082190DB6A9D4224BF244B1C60E36A2B4A126804
S2140821A0934284BF294A1360294A11682164013181
S2140821B01160284A1268934284BF264A136003EBCC
S2140821C083031A4800EB83003946234B9847234B72
S2140821D098471D4B1B684BB1134B1B68DB6A9D4227
S2140821E007D91F4B98470120BDE8F88F0120BDE8A6
S2140821F0F88F0120BDE8F88FC0F8308040465BE7CE
S2140822004FF0FF30BDE8F88FF11708004D190800A9
S214082210111A0800F92E08008D2F0800A5170800C7
S21408222001180800D4A7072094A707202CA7072082
S214082230F116080098A7072000A70720E0A60720A1
S214082240F4A60720B4A70720F8A60720D8A70720D3
S214082250B8A7072028A70720111708002118080084
S214082260E117080009170800BCA7072014A70720CD
S21408227010B584B0002300930193029303930E488D
S2140822800E4982220E4CA04701280ED10D4B9847C6
S21408229001280AD10C4B984701220C4B1A600022E1
S2140822A00B4B1A600B4B984704E018B9064B984737
S2140822B000BFFDE704B010BDC12508006431080062
S2140822C069200800552A0800F1170800F8A6072014
S2140822D0B0A70720BD180800024B1A6801321A601A
S2140822E0704700BF90A7072010B5044B9847044BCB
S2140822F01C68044B9847204610BD00BF011808000C
S214082300B0A70720211808002DE9F0413A4B1B68B2
S214082310002B6BD1394B1A6801321A601B6803BB55
S214082320374B1B681B681BB1364B984700BFFDE749
S214082330334B1968344A106818601160334A1168BC
S214082340013111601B681B6823B94FF0FF32304B10
S2140823501A6006E02A4B1B68DB68DB685A682C4B59
S2140823601A60264B1A682A4B1B689A4242D3244B9B
S2140823701B681B684BB1224B1B68DB68DC6863680C
S2140823801E4A1268934213D90EE04FF0FF32204BD4
S2140823901A60BDE8F0811A4B1B68DB68DC68636866
S2140823A0164A1268934207D9194A1360BDE8F081A5
S2140823B0184E194FDFF86C80251D2846B047A36ACB
S2140823C013B104F11800B047E36A3A68934288BF2D
S2140823D03B6003EB830008EB800029460F4B9847C9
S2140823E0074B1B681B68002BD5D1CEE70C4B1A6829
S2140823F001321A60BDE8F08190A70720B0A7072031
S214082400F4A60720F1170800B4A70720ACA70720F2
S214082410480107206917080028A707201117080091
S214082420DCA607202CA707202DE9F843314B1B68AC
S2140824301BB9314B984700BFFDE7304B98472D4BEB
S2140824401A68013A1A601B68002B48D12C4B1B6887
S214082450002B46D00025DFF8D4802A4F2A4E1DE0F0
S214082460D8F80C30DC6804F11800B84704F1040901
S2140824704846B847E36A3268934288BF336003EB3E
S2140824808303224800EB83004946214B9847214B9B
S2140824901B68E26ADB6A9A4228BF0125D8F8003032
S2140824A0002BDDD11C4B1B6863B11B4B1B687BB133
S2140824B01A4D194CA8472368013B23602368002B54
S2140824C0F8D105E0012D03D0154B1B68012B0AD166
S2140824D00022134B1A60134B9847012404E000248B
S2140824E002E0002400E000240F4B98472046BDE891
S2140824F0F88300BF90A70720F11708000118080006
S214082500D4A707206917080028A707202CA70720A4
S2140825101117080094A70720DCA60720092308003F
S214082520D0A70720E11708002118080098A7072059
S21408253038B50C46054618B9194B984700BFFDE74D
S21408254019B9174B984700BFFDE7164B98472B68F5
S2140825501C44154A1268934207D9A3421CD9124B49
S2140825601B682C609C420FD906E0A34212D80E4B7B
S2140825701B689C420ED80FE00C4B186804300C4BB6
S214082580984720460B4B98470B4B984730B90B4B50
S214082590984738BD2C60EFE72C60F5E738BD00BFDC
S2140825A0F1170800D9220800B0A7072094A707202B
S2140825B0691708001120080029240800E1170800F8
S2140825C080B5154D154EDFF878801CE0144B9847FB
S2140825D0144B1C68144B9847ACB1144B9847114BD6
S2140825E0DB68DC68201D124B9847124B1A68013AC4
S2140825F01A602B68013B2B600F4B9847206B0F4FD8
S214082600B8472046B8472B68002BDFD13368012B24
S214082610F9D9C047F7E700BFFCA607202CA7072074
S214082620D922080000A70720292408000118080056
S21408263069170800D4A7072021180800111A0800EF
S214082640E117080008B51D4B1B685BB91C4B1B68D7
S21408265003EB83039B001B4AD358CBB9184B1B6864
S21408266053B905E00122184B1A6008BD1A682AB942
S214082670164B984700BFFDE7114B12491A68013AF6
S2140826801A601A6802EB820251F82220002AEDD05E
S2140826900B4B1B6803EB83030A4A02EB83035A6857
S2140826A052685A6003F108018A4204BF52685A60A9
S2140826B05B68DA68064B1A6008BD00BF90A707205B
S2140826C028A707202CA70720D0A70720F11708005F
S2140826D094A7072038B50C4618B90E4B984700BF84
S2140826E0FDE70D4D296818310C4B984728680430CB
S2140826F00B4B9847B4F1FF3F05D1296809480431C8
S214082700094B984738BD094B18682044084B98472A
S21408271038BD00BFF117080094A707202D1708003A
S21408272069170800E0A6072011170800B0A70720B9
S2140827301120080038B50D4618B9094B984700BF50
S214082740FDE7084C21681831074B98472068043085
S214082750064B9847064B18682844064B984738BDDA
S214082760F117080094A70720111708006917080032
S214082770B0A707201120080038B5C368DC681CB964
S214082780164B984700BFFDE704F118052846144B7A
S2140827909847144B1B689BB9251D2846104B98472D
S2140827A0E36A114A1268934284BF0F4A136003EB28
S2140827B083030E4800EB830029460D4B984703E039
S2140827C00C4829460A4B98470B4B1B68E06ADB6A9D
S2140827D0984234BF0020012038BD00BFF11708001A
S2140827E06917080090A7072028A707202CA7072006
S2140827F01117080098A7072094A7072008B518B946
S214082800054B984700BFFDE7044A12680260044A71
S2140828101268426008BD00BFF1170800ACA7072081
S214082820B0A7072038B50D46044618B9184B984780
S21408283000BFFDE719B9164B984700BFFDE7154BD3
S21408284098472B68B3F1FF3F19D0134A11682268DE
S2140828508A4204D0114A116862688A4211D90F4A1E
S21408286011686268891A8B420DD90C490968521A90
S21408287013442B6020460A4B9847002404E00024A3
S21408288002E0012400E00124064B9847204638BDA4
S214082890F117080001180800ACA70720B0A7072002
S2140828A0FD270800211808000122014B1A6070470E
S2140828B0D0A70720014B1868704700BF94A70720C9
S2140828C0054B1B6833B1054B1B68002B14BF022051
S2140828D00120704700207047F8A6072090A7072019
S2140828E038B5044600282ED0C36A174A1268D26A3A
S2140828F0934228D2144A1268D26AC2F1050282614B
S21408290003EB8303114A02EB830342699A4216D10A
S214082910051D28460E4B98470B4B1B68DB6AE3627F
S2140829200C4A1268934284BF0A4A136003EB830377
S214082930064800EB83002946074B984738BD024BEC
S2140829401B68DB6AC36238BD94A707202CA707203C
S2140829506917080028A707201117080038B5044685
S214082960D0B1C26A836C9A4216D0051D28460B4B16
S2140829709847A36CE362C3F10502A261084A12688D
S214082980934284BF064A136003EB8303054800EBB3
S21408299083002946044B984738BD00BF69170800CE
S2140829A028A707202CA707201117080010B50446EB
S2140829B04160206191420AD8D21A81698A4211D2AE
S2140829C00A4B1868211D0A4B9847002010BD9A42EA
S2140829D001D2994208D2074B1868211D044B984724
S2140829E0002010BD012010BD012010BD10A8072032
S2140829F02D170800DCA7072070B50D4B98470D4B20
S214082A001B688BB90C4D28460C4EB0470C4C20461C
S214082A10B0470C4B1D600C4B1C6005200C21002297
S214082A200A4B9847034B1860094B984770BD00BF80
S214082A30011808000CA80720E0A70720F1160800D0
S214082A40F4A70720DCA7072010A80720D91B080032
S214082A502118080010B584B00B4B98470B4B1B6821
S214082A6063B1042300930023019302930393084859
S214082A7008494FF48272084CA04718B9074B984784
S214082A8000BFFDE704B010BDF92908000CA8072010
S214082A90A92B08007031080069200800F117080003
S214082AA010B584B00F4C2468C4B10191029203900B
S214082AB06BB90D4B984701280A4B186801A907BF40
S214082AC0069A002300221346084CA04707E0204633
S214082AD001A91A460023064CA04700E0002004B0CF
S214082AE010BD00BF0CA80720C1280800591C080004
S214082AF0D91D08002DE9F04782B08146224B984739
S214082B008046224B1B68984234D2214E214F24E03F
S214082B10DA68D2F800A0DB68DC68251D2846B847C6
S214082B20636A20469847E369012B16D1A369534484
S214082B30534506D96360246130682946164B984782
S214082B400BE000230093204619465246134CA04734
S214082B5018B9134B984700BFFDE733681A68002A70
S214082B60D6D1104A11680A48016013600123C9F8D3
S214082B70003002E00023C9F80030044BC3F8008098
S214082B80404602B0BDE8F087E922080008A80720FA
S214082B90DCA70720691708002D170800A12A0800D7
S214082BA0F117080010A807202DE9F04387B04D4D0F
S214082BB0DFF860814C4B1B681A68002A00F0878093
S214082BC0DB681E68494B984703A8494B9847074651
S214082BD0039B002B30D1864224D8464B9847424B5D
S214082BE01B68DB68DC68201DC047E369012B14D12D
S214082BF0A169204631443A4633463F4FB847012834
S214082C000BD1002300932046194632463B4EB04768
S214082C1018B93B4B984700BFFDE7636A20469847BC
S214082C200CE000262868F11B364B9847314B98472E
S214082C3020B9354B984701E02E4B984702A82C4BF5
S214082C4098470746314EDFF8B09038E0059C1CB12F
S214082C50616909B1201DC047039902291FD00329BD
S214082C602AD000292BD1049BA169204619443A464C
S214082C70C847012823D1636A20469847E369012B91
S214082C801DD1A2690023009320461946049C2244BD
S214082C901A4CA04798B91A4B984700BFFDE7049905
S214082CA0A16119B9164B984700BFFDE7204639447D
S214082CB03A463B46C84702E02046154B98472868E0
S214082CC003A900221346B0470028BFD172E7074B76
S214082CD0984703A8064B98470746039B002BA0D0A7
S214082CE0AAE700BF0CA80720DCA70720D9220800FF
S214082CF0F52A080029240800AD290800A12A08009A
S214082D00F1170800C51F0800E1170800691E08002B
S214082D10111A08006917080070B584B0174B984751
S214082D20174B9847174B984717481849184A194B8E
S214082D309847194E30600024009401940294039436
S214082D40164817494FF480722346164DA847009434
S214082D50019402940394144814494FF4807223464D
S214082D60A8470094019402940394114811494FF41B
S214082D7080723346A847104B9847FEE72D06080092
S214082D80590F0800E105080000C00940783108001E
S214082D904C0107204D0B080020A807203105080025
S214082DA09031080069200800550508009C31080085
S214082DB079050800A83108007122080070B50F4E82
S214082DC00F4D761BB61007D0043D0024013455F885
S214082DD0043F9847A642F9D10A4E0B4D00F0EEF98B
S214082DE0761BB61008D0043D0024013455F8043F7D
S214082DF09847A642F9D170BD70BD00BFC83108001B
S214082E00C8310800D0310800C8310800844641EAB5
S214082E10000313F0030349D1403A23D30B68036039
S214082E204B6843608B688360CB68C3600B6903613B
S214082E304B6943618B698361CB69C3610B6A036223
S214082E404B6A43628B6A8362CB6AC3620B6B03630B
S214082E504B6B43638B6B8363CB6BC36340304031F0
S214082E60403ADBD230320BD30B6803604B684360C2
S214082E708B688360CB68C36010301031103AF3D289
S214082E800C3205D351F8043B40F8043B043AF9D217
S214082E90043208D0D2071CBF11F8013B00F8013BEA
S214082EA001D30B8803806046704700BF082A13D3F7
S214082EB08B07B1D010F00303AED0C3F10403D21AC7
S214082EC0DB071CBF11F8013B00F8013BA4D331F81F
S214082ED0023B20F8023B9FE7043AD9D3013A11F89F
S214082EE0013B00F8013BF9D20B7803704B7843702E
S214082EF08B78837060467047F0B4840743D0541EBE
S214082F00002A3ED0CDB2034603E0621E002C38D01D
S214082F10144603F8015B9A07F7D1032C2AD9CDB2D9
S214082F2045EA05250F2C45EA054515D9A4F11007ED
S214082F303F0903F1100606EB07161A46156055609A
S214082F409560D5601032B242F8D104F00F0401370C
S214082F50032C03EB07130DD91E462246043A032A10
S214082F6046F8045BFAD8221F22F003020432134400
S214082F7004F003042CB1C9B21C4403F8011BA34295
S214082F80FBD1F0BC704714460346C6E740EA010387
S214082F909B0770B42AD1032A28D90C460346214633
S214082FA054F8045BA5F1013626EA050616F0803FBC
S214082FB005D1043A032A43F8045B2146EFD89AB1B0
S214082FC00C78013A1C7001333CB16AB111F8014F14
S214082FD0013A03F8014B002CF7D12AB11A44002114
S214082FE003F8011B9342FBD170BC70470346E6E723
S214082FF0024B13B1024800F005B870470000000005
S21408300011300800014600200246034600F018B8B2
S21408301038B5094D094C641BA41018BF05EB840588
S21408302005D0013C55F8043D9847002CF9D1BDE879
S214083030384000F0CDB800BFDC310800E0310800A9
S214083040F0B5274C85B026680746D6F84841002CC8
S21408305040D065681F2D1EDD224818B94FF0FF3096
S21408306005B0F0BD4FF4C870039102920193AFF318
S214083070008003990446029A019B0028EED0D6F8F1
S21408308048510020256060600546C6F84841C4F8E7
S2140830908801C4F88C013FB96B1C002002356360B8
S2140830A044F8251005B0F0BD0126AE4004EB8500B7
S2140830B0C0F88820D4F88821022F42EA0602C4F80D
S2140830C08821C0F80831E7D1D4F88C311E43C4F8FB
S2140830D08C61E1E706F5A674C6F84841B9E700BF73
S2140830E0B83108000000000000080E4000090E4035
S2140830F00800000008000000726571756573742189
S2140831000000000000C20100C00000000008000027
S21408311000800940008109401100000011000000ED
S21408312000C0094000C1094012000000120000005B
S21408313000000A4000010A401300000013000000C7
S21408314000400A4000410A40140000001400000035
S2140831502573090925630925750925750925750D3A
S2140831600A00000049444C45000000000D0A000013
S214083170546D72205376630000C20100C000000040
S214083180000800000000000000000000000000002A
S2140831907461736B5F64756D6D7931007461736B00
S2140831A05F64756D6D7932007461736B5F756172FB
S2140831B0740000004300000060010720F8B500BF57
S2140831C0F8BC08BC9E467047F12F08001901080095
S2140831D0F8B500BFF8BC08BC9E467047F500080066
S2140831E04FF48063204A136002F5007213601F4B89
S2140831F01B6A13F0807F07D11D4A1C4B1A621A46B9
S214083200936E13F0010FFBD01A4A184B1A621A462F
S214083210936E13F4803FFBD0144B1A6B22F0030214
S21408322042F001021A631A46936E13F0080FFBD099
S214083230114A0E4B9A621A46936E13F0020FFBD091
S21408324011220A4B1A631A46936E13F0080FFBD026
S2140832501222064B1A631A46936E13F0080FFBD019
S214083260064A074B1A607047000A0E4000060E40D2
S2140832700908370009083701013F0D2000BD010580
S2140832803C0107201B4B984206D800231A4A1360B5
S21408329002F5007213607047184B984207D84FF42F
S2140832A08073154A136002F5007213607047144B5A
S2140832B0984207D84FF400730F4A136002F500725D
S2140832C0136070470F4B984207D84FF440730A4A6A
S2140832D0136002F50072136070470B4B984294BF58
S2140832E04FF480634FF4A063034A136002F500723C
S2140832F013607047BFEA2101000A0E407FF0FA0209
S214083300FF8FD003FFB3C4047F4A5D0518A80720C3
S214083310080000000E0000000106000000093D003D
S214083320AAAAAAAA00A00000FFFFFFFF18A8072065
S214083330080000000E000000000600000000000064
S214083340000000004C040720B40407201C050720D2
S2140833500000000000000000000000000000000060
S2140833600000000000000000000000000000000050
S21408337000000000B4310800000000000000000053
S2140833800000000000000000000000000000000030
S2140833900000000000000000000000000000000020
S2140833A00000000000000000000000000000000010
S2140833B00000000000000000000000000000000000
S2140833C000000000000000000000000000000000F0
S2140833D000000000000000000000000000000000E0
S2140833E000000000000000000100000000000000CF
S2140833F00E33CDAB34126DE6ECDE05000B00000094
S21408340000000000000000000000000000000000AF
S214083410000000000000000000000000000000009F
S214083420000000000000000000000000000000008F
S214083430000000000000000000000000000000007F
S804081525B9
